{
  "_format": "hh-sol-artifact-1",
  "contractName": "XdefiTestERC20",
  "sourceName": "contracts/XdefiTestERC20.sol",
  "abi": [
    {
      "inputs": [
        {
          "internalType": "string",
          "name": "name_",
          "type": "string"
        },
        {
          "internalType": "string",
          "name": "symbol_",
          "type": "string"
        },
        {
          "internalType": "address",
          "name": "owner_",
          "type": "address"
        }
      ],
      "stateMutability": "nonpayable",
      "type": "constructor"
    },
    {
      "inputs": [
        {
          "internalType": "address",
          "name": "signer",
          "type": "address"
        },
        {
          "internalType": "address",
          "name": "owner",
          "type": "address"
        }
      ],
      "name": "ERC2612InvalidSigner",
      "type": "error"
    },
    {
      "anonymous": false,
      "inputs": [
        {
          "indexed": true,
          "internalType": "address",
          "name": "owner",
          "type": "address"
        },
        {
          "indexed": true,
          "internalType": "address",
          "name": "spender",
          "type": "address"
        },
        {
          "indexed": false,
          "internalType": "uint256",
          "name": "value",
          "type": "uint256"
        }
      ],
      "name": "Approval",
      "type": "event"
    },
    {
      "anonymous": false,
      "inputs": [
        {
          "indexed": true,
          "internalType": "address",
          "name": "from",
          "type": "address"
        },
        {
          "indexed": true,
          "internalType": "address",
          "name": "to",
          "type": "address"
        },
        {
          "indexed": false,
          "internalType": "uint256",
          "name": "value",
          "type": "uint256"
        }
      ],
      "name": "Transfer",
      "type": "event"
    },
    {
      "inputs": [],
      "name": "DOMAIN_SEPARATOR",
      "outputs": [
        {
          "internalType": "bytes32",
          "name": "",
          "type": "bytes32"
        }
      ],
      "stateMutability": "view",
      "type": "function"
    },
    {
      "inputs": [
        {
          "internalType": "address",
          "name": "owner",
          "type": "address"
        },
        {
          "internalType": "address",
          "name": "spender",
          "type": "address"
        }
      ],
      "name": "allowance",
      "outputs": [
        {
          "internalType": "uint256",
          "name": "",
          "type": "uint256"
        }
      ],
      "stateMutability": "view",
      "type": "function"
    },
    {
      "inputs": [
        {
          "internalType": "address",
          "name": "spender",
          "type": "address"
        },
        {
          "internalType": "uint256",
          "name": "amount",
          "type": "uint256"
        }
      ],
      "name": "approve",
      "outputs": [
        {
          "internalType": "bool",
          "name": "",
          "type": "bool"
        }
      ],
      "stateMutability": "nonpayable",
      "type": "function"
    },
    {
      "inputs": [
        {
          "internalType": "address",
          "name": "account",
          "type": "address"
        }
      ],
      "name": "balanceOf",
      "outputs": [
        {
          "internalType": "uint256",
          "name": "",
          "type": "uint256"
        }
      ],
      "stateMutability": "view",
      "type": "function"
    },
    {
      "inputs": [],
      "name": "decimals",
      "outputs": [
        {
          "internalType": "uint8",
          "name": "",
          "type": "uint8"
        }
      ],
      "stateMutability": "view",
      "type": "function"
    },
    {
      "inputs": [
        {
          "internalType": "address",
          "name": "spender",
          "type": "address"
        },
        {
          "internalType": "uint256",
          "name": "subtractedValue",
          "type": "uint256"
        }
      ],
      "name": "decreaseAllowance",
      "outputs": [
        {
          "internalType": "bool",
          "name": "",
          "type": "bool"
        }
      ],
      "stateMutability": "nonpayable",
      "type": "function"
    },
    {
      "inputs": [
        {
          "internalType": "string",
          "name": "_name",
          "type": "string"
        },
        {
          "internalType": "string",
          "name": "_symbol",
          "type": "string"
        },
        {
          "internalType": "address",
          "name": "_owner",
          "type": "address"
        },
        {
          "internalType": "uint256",
          "name": "_initialSupply",
          "type": "uint256"
        }
      ],
      "name": "getInitData",
      "outputs": [
        {
          "internalType": "bytes",
          "name": "_data",
          "type": "bytes"
        }
      ],
      "stateMutability": "pure",
      "type": "function"
    },
    {
      "inputs": [
        {
          "internalType": "address",
          "name": "spender",
          "type": "address"
        },
        {
          "internalType": "uint256",
          "name": "addedValue",
          "type": "uint256"
        }
      ],
      "name": "increaseAllowance",
      "outputs": [
        {
          "internalType": "bool",
          "name": "",
          "type": "bool"
        }
      ],
      "stateMutability": "nonpayable",
      "type": "function"
    },
    {
      "inputs": [
        {
          "internalType": "bytes",
          "name": "_data",
          "type": "bytes"
        }
      ],
      "name": "init",
      "outputs": [],
      "stateMutability": "payable",
      "type": "function"
    },
    {
      "inputs": [
        {
          "internalType": "bytes",
          "name": "_data",
          "type": "bytes"
        }
      ],
      "name": "initToken",
      "outputs": [],
      "stateMutability": "nonpayable",
      "type": "function"
    },
    {
      "inputs": [
        {
          "internalType": "string",
          "name": "_name",
          "type": "string"
        },
        {
          "internalType": "string",
          "name": "_symbol",
          "type": "string"
        },
        {
          "internalType": "address",
          "name": "_owner",
          "type": "address"
        },
        {
          "internalType": "uint256",
          "name": "_initialSupply",
          "type": "uint256"
        }
      ],
      "name": "initToken",
      "outputs": [],
      "stateMutability": "nonpayable",
      "type": "function"
    },
    {
      "inputs": [],
      "name": "name",
      "outputs": [
        {
          "internalType": "string",
          "name": "",
          "type": "string"
        }
      ],
      "stateMutability": "view",
      "type": "function"
    },
    {
      "inputs": [
        {
          "internalType": "address",
          "name": "",
          "type": "address"
        }
      ],
      "name": "nonces",
      "outputs": [
        {
          "internalType": "uint256",
          "name": "",
          "type": "uint256"
        }
      ],
      "stateMutability": "view",
      "type": "function"
    },
    {
      "inputs": [
        {
          "internalType": "address",
          "name": "owner_",
          "type": "address"
        },
        {
          "internalType": "address",
          "name": "spender",
          "type": "address"
        },
        {
          "internalType": "uint256",
          "name": "value",
          "type": "uint256"
        },
        {
          "internalType": "uint256",
          "name": "deadline",
          "type": "uint256"
        },
        {
          "internalType": "uint8",
          "name": "v",
          "type": "uint8"
        },
        {
          "internalType": "bytes32",
          "name": "r",
          "type": "bytes32"
        },
        {
          "internalType": "bytes32",
          "name": "s",
          "type": "bytes32"
        }
      ],
      "name": "permit",
      "outputs": [],
      "stateMutability": "nonpayable",
      "type": "function"
    },
    {
      "inputs": [],
      "name": "symbol",
      "outputs": [
        {
          "internalType": "string",
          "name": "",
          "type": "string"
        }
      ],
      "stateMutability": "view",
      "type": "function"
    },
    {
      "inputs": [],
      "name": "tokenTemplate",
      "outputs": [
        {
          "internalType": "uint256",
          "name": "",
          "type": "uint256"
        }
      ],
      "stateMutability": "view",
      "type": "function"
    },
    {
      "inputs": [],
      "name": "totalSupply",
      "outputs": [
        {
          "internalType": "uint256",
          "name": "",
          "type": "uint256"
        }
      ],
      "stateMutability": "view",
      "type": "function"
    },
    {
      "inputs": [
        {
          "internalType": "address",
          "name": "recipient",
          "type": "address"
        },
        {
          "internalType": "uint256",
          "name": "amount",
          "type": "uint256"
        }
      ],
      "name": "transfer",
      "outputs": [
        {
          "internalType": "bool",
          "name": "",
          "type": "bool"
        }
      ],
      "stateMutability": "nonpayable",
      "type": "function"
    },
    {
      "inputs": [
        {
          "internalType": "address",
          "name": "sender",
          "type": "address"
        },
        {
          "internalType": "address",
          "name": "recipient",
          "type": "address"
        },
        {
          "internalType": "uint256",
          "name": "amount",
          "type": "uint256"
        }
      ],
      "name": "transferFrom",
      "outputs": [
        {
          "internalType": "bool",
          "name": "",
          "type": "bool"
        }
      ],
      "stateMutability": "nonpayable",
      "type": "function"
    }
  ],
  "bytecode": "0x60806040523480156200001157600080fd5b50604051620034ba380380620034ba83398181016040528101906200003791906200057e565b6200004983836200006d60201b60201c565b6200006481681b1ae4d6e2ef5000006200017860201b60201c565b50505062000bd8565b600760019054906101000a900460ff1615620000c0576040517f08c379a0000000000000000000000000000000000000000000000000000000008152600401620000b7906200069f565b60405180910390fd5b8160059081620000d191906200090c565b508060069081620000e391906200090c565b506012600760006101000a81548160ff021916908360ff16021790555060004690507f47e79534a245952e8b16893a336b85a3d9ea9fa8c573f3d803afb92a7946921881306040516020016200013c9392919062000a30565b604051602081830303815290604052805190602001206000819055506001600760016101000a81548160ff021916908315150217905550505050565b600073ffffffffffffffffffffffffffffffffffffffff168273ffffffffffffffffffffffffffffffffffffffff1603620001ea576040517f08c379a0000000000000000000000000000000000000000000000000000000008152600401620001e19062000abd565b60405180910390fd5b620001fe600083836200031e60201b60201c565b62000215816004546200032360201b90919060201c565b6004819055506200026f81600160008573ffffffffffffffffffffffffffffffffffffffff1673ffffffffffffffffffffffffffffffffffffffff168152602001908152602001600020546200032360201b90919060201c565b600160008473ffffffffffffffffffffffffffffffffffffffff1673ffffffffffffffffffffffffffffffffffffffff168152602001908152602001600020819055508173ffffffffffffffffffffffffffffffffffffffff16600073ffffffffffffffffffffffffffffffffffffffff167fddf252ad1be2c89b69c2b068fc378daa952ba7f163c4a11628f55a4df523b3ef8360405162000312919062000adf565b60405180910390a35050565b505050565b600080828462000334919062000b2b565b9050838110156200037c576040517f08c379a0000000000000000000000000000000000000000000000000000000008152600401620003739062000bb6565b60405180910390fd5b8091505092915050565b6000604051905090565b600080fd5b600080fd5b600080fd5b600080fd5b6000601f19601f8301169050919050565b7f4e487b7100000000000000000000000000000000000000000000000000000000600052604160045260246000fd5b620003ef82620003a4565b810181811067ffffffffffffffff82111715620004115762000410620003b5565b5b80604052505050565b60006200042662000386565b9050620004348282620003e4565b919050565b600067ffffffffffffffff821115620004575762000456620003b5565b5b6200046282620003a4565b9050602081019050919050565b60005b838110156200048f57808201518184015260208101905062000472565b60008484015250505050565b6000620004b2620004ac8462000439565b6200041a565b905082815260208101848484011115620004d157620004d06200039f565b5b620004de8482856200046f565b509392505050565b600082601f830112620004fe57620004fd6200039a565b5b8151620005108482602086016200049b565b91505092915050565b600073ffffffffffffffffffffffffffffffffffffffff82169050919050565b6000620005468262000519565b9050919050565b620005588162000539565b81146200056457600080fd5b50565b60008151905062000578816200054d565b92915050565b6000806000606084860312156200059a576200059962000390565b5b600084015167ffffffffffffffff811115620005bb57620005ba62000395565b5b620005c986828701620004e6565b935050602084015167ffffffffffffffff811115620005ed57620005ec62000395565b5b620005fb86828701620004e6565b92505060406200060e8682870162000567565b9150509250925092565b600082825260208201905092915050565b7f45524332303a20746f6b656e2068617320616c7265616479206265656e20696e60008201527f697469616c697a65642100000000000000000000000000000000000000000000602082015250565b600062000687602a8362000618565b9150620006948262000629565b604082019050919050565b60006020820190508181036000830152620006ba8162000678565b9050919050565b600081519050919050565b7f4e487b7100000000000000000000000000000000000000000000000000000000600052602260045260246000fd5b600060028204905060018216806200071457607f821691505b6020821081036200072a5762000729620006cc565b5b50919050565b60008190508160005260206000209050919050565b60006020601f8301049050919050565b600082821b905092915050565b600060088302620007947fffffffffffffffffffffffffffffffffffffffffffffffffffffffffffffffff8262000755565b620007a0868362000755565b95508019841693508086168417925050509392505050565b6000819050919050565b6000819050919050565b6000620007ed620007e7620007e184620007b8565b620007c2565b620007b8565b9050919050565b6000819050919050565b6200080983620007cc565b620008216200081882620007f4565b84845462000762565b825550505050565b600090565b6200083862000829565b62000845818484620007fe565b505050565b5b818110156200086d57620008616000826200082e565b6001810190506200084b565b5050565b601f821115620008bc57620008868162000730565b620008918462000745565b81016020851015620008a1578190505b620008b9620008b08562000745565b8301826200084a565b50505b505050565b600082821c905092915050565b6000620008e160001984600802620008c1565b1980831691505092915050565b6000620008fc8383620008ce565b9150826002028217905092915050565b6200091782620006c1565b67ffffffffffffffff811115620009335762000932620003b5565b5b6200093f8254620006fb565b6200094c82828562000871565b600060209050601f8311600181146200098457600084156200096f578287015190505b6200097b8582620008ee565b865550620009eb565b601f198416620009948662000730565b60005b82811015620009be5784890151825560018201915060208501945060208101905062000997565b86831015620009de5784890151620009da601f891682620008ce565b8355505b6001600288020188555050505b505050505050565b6000819050919050565b62000a0881620009f3565b82525050565b62000a1981620007b8565b82525050565b62000a2a8162000539565b82525050565b600060608201905062000a476000830186620009fd565b62000a56602083018562000a0e565b62000a65604083018462000a1f565b949350505050565b7f45524332303a206d696e7420746f20746865207a65726f206164647265737300600082015250565b600062000aa5601f8362000618565b915062000ab28262000a6d565b602082019050919050565b6000602082019050818103600083015262000ad88162000a96565b9050919050565b600060208201905062000af6600083018462000a0e565b92915050565b7f4e487b7100000000000000000000000000000000000000000000000000000000600052601160045260246000fd5b600062000b3882620007b8565b915062000b4583620007b8565b925082820190508082111562000b605762000b5f62000afc565b5b92915050565b7f536166654d6174683a206164646974696f6e206f766572666c6f770000000000600082015250565b600062000b9e601b8362000618565b915062000bab8262000b66565b602082019050919050565b6000602082019050818103600083015262000bd18162000b8f565b9050919050565b6128d28062000be86000396000f3fe6080604052600436106101145760003560e01c806360b1cc80116100a0578063a457c2d711610064578063a457c2d7146103ba578063a9059cbb146103f7578063d505accf14610434578063dd62ed3e1461045d578063f21f007c1461049a57610114565b806360b1cc80146102c357806370a08231146102ec5780637ecebe00146103295780638dc7df721461036657806395d89b411461038f57610114565b806323b872dd116100e757806323b872dd146101d7578063313ce567146102145780633644e5151461023f578063395093511461026a5780634ddf47d4146102a757610114565b806306fdde03146101195780630814d3dd14610144578063095ea7b31461016f57806318160ddd146101ac575b600080fd5b34801561012557600080fd5b5061012e6104d7565b60405161013b919061150f565b60405180910390f35b34801561015057600080fd5b50610159610569565b604051610166919061154a565b60405180910390f35b34801561017b57600080fd5b5061019660048036038101906101919190611603565b61056e565b6040516101a3919061165e565b60405180910390f35b3480156101b857600080fd5b506101c161058c565b6040516101ce919061154a565b60405180910390f35b3480156101e357600080fd5b506101fe60048036038101906101f99190611679565b610596565b60405161020b919061165e565b60405180910390f35b34801561022057600080fd5b5061022961066f565b60405161023691906116e8565b60405180910390f35b34801561024b57600080fd5b50610254610686565b604051610261919061171c565b60405180910390f35b34801561027657600080fd5b50610291600480360381019061028c9190611603565b61068c565b60405161029e919061165e565b60405180910390f35b6102c160048036038101906102bc919061179c565b61073f565b005b3480156102cf57600080fd5b506102ea60048036038101906102e5919061179c565b610743565b005b3480156102f857600080fd5b50610313600480360381019061030e91906117e9565b610774565b604051610320919061154a565b60405180910390f35b34801561033557600080fd5b50610350600480360381019061034b91906117e9565b6107bd565b60405161035d919061154a565b60405180910390f35b34801561037257600080fd5b5061038d60048036038101906103889190611946565b6107d5565b005b34801561039b57600080fd5b506103a46107ef565b6040516103b1919061150f565b60405180910390f35b3480156103c657600080fd5b506103e160048036038101906103dc9190611603565b610881565b6040516103ee919061165e565b60405180910390f35b34801561040357600080fd5b5061041e60048036038101906104199190611603565b61094e565b60405161042b919061165e565b60405180910390f35b34801561044057600080fd5b5061045b60048036038101906104569190611a3d565b61096c565b005b34801561046957600080fd5b50610484600480360381019061047f9190611adf565b610c00565b604051610491919061154a565b60405180910390f35b3480156104a657600080fd5b506104c160048036038101906104bc9190611b75565b610c87565b6040516104ce9190611c71565b60405180910390f35b6060600580546104e690611cc2565b80601f016020809104026020016040519081016040528092919081815260200182805461051290611cc2565b801561055f5780601f106105345761010080835404028352916020019161055f565b820191906000526020600020905b81548152906001019060200180831161054257829003601f168201915b5050505050905090565b600181565b600061058261057b610cbf565b8484610cc7565b6001905092915050565b6000600454905090565b60006105a3848484610e90565b610664846105af610cbf565b61065f8560405180606001604052806028815260200161285060289139600360008b73ffffffffffffffffffffffffffffffffffffffff1673ffffffffffffffffffffffffffffffffffffffff1681526020019081526020016000206000610615610cbf565b73ffffffffffffffffffffffffffffffffffffffff1673ffffffffffffffffffffffffffffffffffffffff168152602001908152602001600020546111279092919063ffffffff16565b610cc7565b600190509392505050565b6000600760009054906101000a900460ff16905090565b60005481565b6000610735610699610cbf565b8461073085600360006106aa610cbf565b73ffffffffffffffffffffffffffffffffffffffff1673ffffffffffffffffffffffffffffffffffffffff16815260200190815260200160002060008973ffffffffffffffffffffffffffffffffffffffff1673ffffffffffffffffffffffffffffffffffffffff1681526020019081526020016000205461118590919063ffffffff16565b610cc7565b6001905092915050565b5050565b60008060008085858101906107589190611d31565b935093509350935061076c848484846107d5565b505050505050565b6000600160008373ffffffffffffffffffffffffffffffffffffffff1673ffffffffffffffffffffffffffffffffffffffff168152602001908152602001600020549050919050565b60026020528060005260406000206000915090505481565b6107df84846111e3565b6107e933826112e5565b50505050565b6060600680546107fe90611cc2565b80601f016020809104026020016040519081016040528092919081815260200182805461082a90611cc2565b80156108775780601f1061084c57610100808354040283529160200191610877565b820191906000526020600020905b81548152906001019060200180831161085a57829003601f168201915b5050505050905090565b600061094461088e610cbf565b8461093f8560405180606001604052806025815260200161287860259139600360006108b8610cbf565b73ffffffffffffffffffffffffffffffffffffffff1673ffffffffffffffffffffffffffffffffffffffff16815260200190815260200160002060008a73ffffffffffffffffffffffffffffffffffffffff1673ffffffffffffffffffffffffffffffffffffffff168152602001908152602001600020546111279092919063ffffffff16565b610cc7565b6001905092915050565b600061096261095b610cbf565b8484610e90565b6001905092915050565b600073ffffffffffffffffffffffffffffffffffffffff168773ffffffffffffffffffffffffffffffffffffffff16036109db576040517f08c379a00000000000000000000000000000000000000000000000000000000081526004016109d290611e1c565b60405180910390fd5b834210610a1d576040517f08c379a0000000000000000000000000000000000000000000000000000000008152600401610a1490611e88565b60405180910390fd5b60006040518060400160405280600281526020017f19010000000000000000000000000000000000000000000000000000000000008152506000547f6e71edae12b1b97f4d1f60370fef10105fa2faae0126114a169c64845d6126c960001b8a8a8a600260008f73ffffffffffffffffffffffffffffffffffffffff1673ffffffffffffffffffffffffffffffffffffffff1681526020019081526020016000206000815480929190610acf90611ed7565b919050558b604051602001610ae996959493929190611f2e565b60405160208183030381529060405280519060200120604051602001610b1193929190611fec565b604051602081830303815290604052805190602001209050600060018286868660405160008152602001604052604051610b4e9493929190612025565b6020604051602081039080840390855afa158015610b70573d6000803e3d6000fd5b5050506020604051035190508873ffffffffffffffffffffffffffffffffffffffff168173ffffffffffffffffffffffffffffffffffffffff1614610bea576040517f08c379a0000000000000000000000000000000000000000000000000000000008152600401610be1906120b6565b60405180910390fd5b610bf5898989610cc7565b505050505050505050565b6000600360008473ffffffffffffffffffffffffffffffffffffffff1673ffffffffffffffffffffffffffffffffffffffff16815260200190815260200160002060008373ffffffffffffffffffffffffffffffffffffffff1673ffffffffffffffffffffffffffffffffffffffff16815260200190815260200160002054905092915050565b6060868686868686604051602001610ca496959493929190612103565b60405160208183030381529060405290509695505050505050565b600033905090565b600073ffffffffffffffffffffffffffffffffffffffff168373ffffffffffffffffffffffffffffffffffffffff1603610d36576040517f08c379a0000000000000000000000000000000000000000000000000000000008152600401610d2d906121cc565b60405180910390fd5b600073ffffffffffffffffffffffffffffffffffffffff168273ffffffffffffffffffffffffffffffffffffffff1603610da5576040517f08c379a0000000000000000000000000000000000000000000000000000000008152600401610d9c9061225e565b60405180910390fd5b80600360008573ffffffffffffffffffffffffffffffffffffffff1673ffffffffffffffffffffffffffffffffffffffff16815260200190815260200160002060008473ffffffffffffffffffffffffffffffffffffffff1673ffffffffffffffffffffffffffffffffffffffff168152602001908152602001600020819055508173ffffffffffffffffffffffffffffffffffffffff168373ffffffffffffffffffffffffffffffffffffffff167f8c5be1e5ebec7d5bd14f71427d1e84f3dd0314c0f7b2291e5b200ac8c7c3b92583604051610e83919061154a565b60405180910390a3505050565b600073ffffffffffffffffffffffffffffffffffffffff168373ffffffffffffffffffffffffffffffffffffffff1603610eff576040517f08c379a0000000000000000000000000000000000000000000000000000000008152600401610ef6906122f0565b60405180910390fd5b600073ffffffffffffffffffffffffffffffffffffffff168273ffffffffffffffffffffffffffffffffffffffff1603610f6e576040517f08c379a0000000000000000000000000000000000000000000000000000000008152600401610f6590612382565b60405180910390fd5b610f7983838361147a565b610fe58160405180606001604052806026815260200161282a60269139600160008773ffffffffffffffffffffffffffffffffffffffff1673ffffffffffffffffffffffffffffffffffffffff168152602001908152602001600020546111279092919063ffffffff16565b600160008573ffffffffffffffffffffffffffffffffffffffff1673ffffffffffffffffffffffffffffffffffffffff1681526020019081526020016000208190555061107a81600160008573ffffffffffffffffffffffffffffffffffffffff1673ffffffffffffffffffffffffffffffffffffffff1681526020019081526020016000205461118590919063ffffffff16565b600160008473ffffffffffffffffffffffffffffffffffffffff1673ffffffffffffffffffffffffffffffffffffffff168152602001908152602001600020819055508173ffffffffffffffffffffffffffffffffffffffff168373ffffffffffffffffffffffffffffffffffffffff167fddf252ad1be2c89b69c2b068fc378daa952ba7f163c4a11628f55a4df523b3ef8360405161111a919061154a565b60405180910390a3505050565b600083831115829061116f576040517f08c379a0000000000000000000000000000000000000000000000000000000008152600401611166919061150f565b60405180910390fd5b50828461117c91906123a2565b90509392505050565b600080828461119491906123d6565b9050838110156111d9576040517f08c379a00000000000000000000000000000000000000000000000000000000081526004016111d090612456565b60405180910390fd5b8091505092915050565b600760019054906101000a900460ff1615611233576040517f08c379a000000000000000000000000000000000000000000000000000000000815260040161122a906124e8565b60405180910390fd5b816005908161124291906126b4565b50806006908161125291906126b4565b506012600760006101000a81548160ff021916908360ff16021790555060004690507f47e79534a245952e8b16893a336b85a3d9ea9fa8c573f3d803afb92a7946921881306040516020016112a993929190612786565b604051602081830303815290604052805190602001206000819055506001600760016101000a81548160ff021916908315150217905550505050565b600073ffffffffffffffffffffffffffffffffffffffff168273ffffffffffffffffffffffffffffffffffffffff1603611354576040517f08c379a000000000000000000000000000000000000000000000000000000000815260040161134b90612809565b60405180910390fd5b6113606000838361147a565b6113758160045461118590919063ffffffff16565b6004819055506113cd81600160008573ffffffffffffffffffffffffffffffffffffffff1673ffffffffffffffffffffffffffffffffffffffff1681526020019081526020016000205461118590919063ffffffff16565b600160008473ffffffffffffffffffffffffffffffffffffffff1673ffffffffffffffffffffffffffffffffffffffff168152602001908152602001600020819055508173ffffffffffffffffffffffffffffffffffffffff16600073ffffffffffffffffffffffffffffffffffffffff167fddf252ad1be2c89b69c2b068fc378daa952ba7f163c4a11628f55a4df523b3ef8360405161146e919061154a565b60405180910390a35050565b505050565b600081519050919050565b600082825260208201905092915050565b60005b838110156114b957808201518184015260208101905061149e565b60008484015250505050565b6000601f19601f8301169050919050565b60006114e18261147f565b6114eb818561148a565b93506114fb81856020860161149b565b611504816114c5565b840191505092915050565b6000602082019050818103600083015261152981846114d6565b905092915050565b6000819050919050565b61154481611531565b82525050565b600060208201905061155f600083018461153b565b92915050565b6000604051905090565b600080fd5b600080fd5b600073ffffffffffffffffffffffffffffffffffffffff82169050919050565b60006115a482611579565b9050919050565b6115b481611599565b81146115bf57600080fd5b50565b6000813590506115d1816115ab565b92915050565b6115e081611531565b81146115eb57600080fd5b50565b6000813590506115fd816115d7565b92915050565b6000806040838503121561161a5761161961156f565b5b6000611628858286016115c2565b9250506020611639858286016115ee565b9150509250929050565b60008115159050919050565b61165881611643565b82525050565b6000602082019050611673600083018461164f565b92915050565b6000806000606084860312156116925761169161156f565b5b60006116a0868287016115c2565b93505060206116b1868287016115c2565b92505060406116c2868287016115ee565b9150509250925092565b600060ff82169050919050565b6116e2816116cc565b82525050565b60006020820190506116fd60008301846116d9565b92915050565b6000819050919050565b61171681611703565b82525050565b6000602082019050611731600083018461170d565b92915050565b600080fd5b600080fd5b600080fd5b60008083601f84011261175c5761175b611737565b5b8235905067ffffffffffffffff8111156117795761177861173c565b5b60208301915083600182028301111561179557611794611741565b5b9250929050565b600080602083850312156117b3576117b261156f565b5b600083013567ffffffffffffffff8111156117d1576117d0611574565b5b6117dd85828601611746565b92509250509250929050565b6000602082840312156117ff576117fe61156f565b5b600061180d848285016115c2565b91505092915050565b600080fd5b7f4e487b7100000000000000000000000000000000000000000000000000000000600052604160045260246000fd5b611853826114c5565b810181811067ffffffffffffffff821117156118725761187161181b565b5b80604052505050565b6000611885611565565b9050611891828261184a565b919050565b600067ffffffffffffffff8211156118b1576118b061181b565b5b6118ba826114c5565b9050602081019050919050565b82818337600083830152505050565b60006118e96118e484611896565b61187b565b90508281526020810184848401111561190557611904611816565b5b6119108482856118c7565b509392505050565b600082601f83011261192d5761192c611737565b5b813561193d8482602086016118d6565b91505092915050565b600080600080608085870312156119605761195f61156f565b5b600085013567ffffffffffffffff81111561197e5761197d611574565b5b61198a87828801611918565b945050602085013567ffffffffffffffff8111156119ab576119aa611574565b5b6119b787828801611918565b93505060406119c8878288016115c2565b92505060606119d9878288016115ee565b91505092959194509250565b6119ee816116cc565b81146119f957600080fd5b50565b600081359050611a0b816119e5565b92915050565b611a1a81611703565b8114611a2557600080fd5b50565b600081359050611a3781611a11565b92915050565b600080600080600080600060e0888a031215611a5c57611a5b61156f565b5b6000611a6a8a828b016115c2565b9750506020611a7b8a828b016115c2565b9650506040611a8c8a828b016115ee565b9550506060611a9d8a828b016115ee565b9450506080611aae8a828b016119fc565b93505060a0611abf8a828b01611a28565b92505060c0611ad08a828b01611a28565b91505092959891949750929550565b60008060408385031215611af657611af561156f565b5b6000611b04858286016115c2565b9250506020611b15858286016115c2565b9150509250929050565b60008083601f840112611b3557611b34611737565b5b8235905067ffffffffffffffff811115611b5257611b5161173c565b5b602083019150836001820283011115611b6e57611b6d611741565b5b9250929050565b60008060008060008060808789031215611b9257611b9161156f565b5b600087013567ffffffffffffffff811115611bb057611baf611574565b5b611bbc89828a01611b1f565b9650965050602087013567ffffffffffffffff811115611bdf57611bde611574565b5b611beb89828a01611b1f565b94509450506040611bfe89828a016115c2565b9250506060611c0f89828a016115ee565b9150509295509295509295565b600081519050919050565b600082825260208201905092915050565b6000611c4382611c1c565b611c4d8185611c27565b9350611c5d81856020860161149b565b611c66816114c5565b840191505092915050565b60006020820190508181036000830152611c8b8184611c38565b905092915050565b7f4e487b7100000000000000000000000000000000000000000000000000000000600052602260045260246000fd5b60006002820490506001821680611cda57607f821691505b602082108103611ced57611cec611c93565b5b50919050565b6000611cfe82611579565b9050919050565b611d0e81611cf3565b8114611d1957600080fd5b50565b600081359050611d2b81611d05565b92915050565b60008060008060808587031215611d4b57611d4a61156f565b5b600085013567ffffffffffffffff811115611d6957611d68611574565b5b611d7587828801611918565b945050602085013567ffffffffffffffff811115611d9657611d95611574565b5b611da287828801611918565b9350506040611db387828801611d1c565b9250506060611dc4878288016115ee565b91505092959194509250565b7f45524332303a204f776e65722063616e6e6f7420626520300000000000000000600082015250565b6000611e0660188361148a565b9150611e1182611dd0565b602082019050919050565b60006020820190508181036000830152611e3581611df9565b9050919050565b7f45524332303a2045787069726564000000000000000000000000000000000000600082015250565b6000611e72600e8361148a565b9150611e7d82611e3c565b602082019050919050565b60006020820190508181036000830152611ea181611e65565b9050919050565b7f4e487b7100000000000000000000000000000000000000000000000000000000600052601160045260246000fd5b6000611ee282611531565b91507fffffffffffffffffffffffffffffffffffffffffffffffffffffffffffffffff8203611f1457611f13611ea8565b5b600182019050919050565b611f2881611599565b82525050565b600060c082019050611f43600083018961170d565b611f506020830188611f1f565b611f5d6040830187611f1f565b611f6a606083018661153b565b611f77608083018561153b565b611f8460a083018461153b565b979650505050505050565b600081905092915050565b6000611fa58261147f565b611faf8185611f8f565b9350611fbf81856020860161149b565b80840191505092915050565b6000819050919050565b611fe6611fe182611703565b611fcb565b82525050565b6000611ff88286611f9a565b91506120048285611fd5565b6020820191506120148284611fd5565b602082019150819050949350505050565b600060808201905061203a600083018761170d565b61204760208301866116d9565b612054604083018561170d565b612061606083018461170d565b95945050505050565b7f45524332303a20496e76616c6964205369676e61747572650000000000000000600082015250565b60006120a060188361148a565b91506120ab8261206a565b602082019050919050565b600060208201905081810360008301526120cf81612093565b9050919050565b60006120e2838561148a565b93506120ef8385846118c7565b6120f8836114c5565b840190509392505050565b6000608082019050818103600083015261211e81888a6120d6565b905081810360208301526121338186886120d6565b90506121426040830185611f1f565b61214f606083018461153b565b979650505050505050565b7f45524332303a20617070726f76652066726f6d20746865207a65726f2061646460008201527f7265737300000000000000000000000000000000000000000000000000000000602082015250565b60006121b660248361148a565b91506121c18261215a565b604082019050919050565b600060208201905081810360008301526121e5816121a9565b9050919050565b7f45524332303a20617070726f766520746f20746865207a65726f20616464726560008201527f7373000000000000000000000000000000000000000000000000000000000000602082015250565b600061224860228361148a565b9150612253826121ec565b604082019050919050565b600060208201905081810360008301526122778161223b565b9050919050565b7f45524332303a207472616e736665722066726f6d20746865207a65726f20616460008201527f6472657373000000000000000000000000000000000000000000000000000000602082015250565b60006122da60258361148a565b91506122e58261227e565b604082019050919050565b60006020820190508181036000830152612309816122cd565b9050919050565b7f45524332303a207472616e7366657220746f20746865207a65726f206164647260008201527f6573730000000000000000000000000000000000000000000000000000000000602082015250565b600061236c60238361148a565b915061237782612310565b604082019050919050565b6000602082019050818103600083015261239b8161235f565b9050919050565b60006123ad82611531565b91506123b883611531565b92508282039050818111156123d0576123cf611ea8565b5b92915050565b60006123e182611531565b91506123ec83611531565b925082820190508082111561240457612403611ea8565b5b92915050565b7f536166654d6174683a206164646974696f6e206f766572666c6f770000000000600082015250565b6000612440601b8361148a565b915061244b8261240a565b602082019050919050565b6000602082019050818103600083015261246f81612433565b9050919050565b7f45524332303a20746f6b656e2068617320616c7265616479206265656e20696e60008201527f697469616c697a65642100000000000000000000000000000000000000000000602082015250565b60006124d2602a8361148a565b91506124dd82612476565b604082019050919050565b60006020820190508181036000830152612501816124c5565b9050919050565b60008190508160005260206000209050919050565b60006020601f8301049050919050565b600082821b905092915050565b60006008830261256a7fffffffffffffffffffffffffffffffffffffffffffffffffffffffffffffffff8261252d565b612574868361252d565b95508019841693508086168417925050509392505050565b6000819050919050565b60006125b16125ac6125a784611531565b61258c565b611531565b9050919050565b6000819050919050565b6125cb83612596565b6125df6125d7826125b8565b84845461253a565b825550505050565b600090565b6125f46125e7565b6125ff8184846125c2565b505050565b5b81811015612623576126186000826125ec565b600181019050612605565b5050565b601f8211156126685761263981612508565b6126428461251d565b81016020851015612651578190505b61266561265d8561251d565b830182612604565b50505b505050565b600082821c905092915050565b600061268b6000198460080261266d565b1980831691505092915050565b60006126a4838361267a565b9150826002028217905092915050565b6126bd8261147f565b67ffffffffffffffff8111156126d6576126d561181b565b5b6126e08254611cc2565b6126eb828285612627565b600060209050601f83116001811461271e576000841561270c578287015190505b6127168582612698565b86555061277e565b601f19841661272c86612508565b60005b828110156127545784890151825560018201915060208501945060208101905061272f565b86831015612771578489015161276d601f89168261267a565b8355505b6001600288020188555050505b505050505050565b600060608201905061279b600083018661170d565b6127a8602083018561153b565b6127b56040830184611f1f565b949350505050565b7f45524332303a206d696e7420746f20746865207a65726f206164647265737300600082015250565b60006127f3601f8361148a565b91506127fe826127bd565b602082019050919050565b60006020820190508181036000830152612822816127e6565b905091905056fe45524332303a207472616e7366657220616d6f756e7420657863656564732062616c616e636545524332303a207472616e7366657220616d6f756e74206578636565647320616c6c6f77616e636545524332303a2064656372656173656420616c6c6f77616e63652062656c6f77207a65726fa264697066735822122064a971f31627978816824e526aeb5bfa1ac7ec3de61998ec94ea4d923081679e64736f6c63430008180033",
  "linkReferences": {},
  "deployedLinkReferences": {}
}