{
  "_format": "hh-sol-artifact-1",
  "contractName": "XdefiToCtrlMigration",
  "sourceName": "contracts/XdefiToCtrlMigration.sol",
  "abi": [
    {
      "inputs": [
        {
          "internalType": "contract IERC20",
          "name": "_oldToken",
          "type": "address"
        },
        {
          "internalType": "contract IERC20",
          "name": "_newToken",
          "type": "address"
        }
      ],
      "stateMutability": "nonpayable",
      "type": "constructor"
    },
    {
      "inputs": [
        {
          "internalType": "address",
          "name": "target",
          "type": "address"
        }
      ],
      "name": "AddressEmptyCode",
      "type": "error"
    },
    {
      "inputs": [
        {
          "internalType": "address",
          "name": "account",
          "type": "address"
        }
      ],
      "name": "AddressInsufficientBalance",
      "type": "error"
    },
    {
      "inputs": [],
      "name": "FailedInnerCall",
      "type": "error"
    },
    {
      "inputs": [
        {
          "internalType": "address",
          "name": "owner",
          "type": "address"
        }
      ],
      "name": "OwnableInvalidOwner",
      "type": "error"
    },
    {
      "inputs": [
        {
          "internalType": "address",
          "name": "account",
          "type": "address"
        }
      ],
      "name": "OwnableUnauthorizedAccount",
      "type": "error"
    },
    {
      "inputs": [
        {
          "internalType": "address",
          "name": "token",
          "type": "address"
        }
      ],
      "name": "SafeERC20FailedOperation",
      "type": "error"
    },
    {
      "anonymous": false,
      "inputs": [
        {
          "indexed": true,
          "internalType": "address",
          "name": "previousOwner",
          "type": "address"
        },
        {
          "indexed": true,
          "internalType": "address",
          "name": "newOwner",
          "type": "address"
        }
      ],
      "name": "OwnershipTransferred",
      "type": "event"
    },
    {
      "inputs": [
        {
          "internalType": "uint256",
          "name": "amount",
          "type": "uint256"
        },
        {
          "internalType": "uint256",
          "name": "deadline",
          "type": "uint256"
        },
        {
          "internalType": "uint8",
          "name": "v",
          "type": "uint8"
        },
        {
          "internalType": "bytes32",
          "name": "r",
          "type": "bytes32"
        },
        {
          "internalType": "bytes32",
          "name": "s",
          "type": "bytes32"
        }
      ],
      "name": "migrate",
      "outputs": [],
      "stateMutability": "nonpayable",
      "type": "function"
    },
    {
      "inputs": [
        {
          "internalType": "address",
          "name": "user",
          "type": "address"
        },
        {
          "internalType": "uint256",
          "name": "amount",
          "type": "uint256"
        },
        {
          "internalType": "uint256",
          "name": "deadline",
          "type": "uint256"
        },
        {
          "internalType": "uint8",
          "name": "v",
          "type": "uint8"
        },
        {
          "internalType": "bytes32",
          "name": "r",
          "type": "bytes32"
        },
        {
          "internalType": "bytes32",
          "name": "s",
          "type": "bytes32"
        }
      ],
      "name": "migrateWithGaslessApproval",
      "outputs": [],
      "stateMutability": "nonpayable",
      "type": "function"
    },
    {
      "inputs": [],
      "name": "newToken",
      "outputs": [
        {
          "internalType": "contract IERC20",
          "name": "",
          "type": "address"
        }
      ],
      "stateMutability": "view",
      "type": "function"
    },
    {
      "inputs": [],
      "name": "oldToken",
      "outputs": [
        {
          "internalType": "contract IERC20",
          "name": "",
          "type": "address"
        }
      ],
      "stateMutability": "view",
      "type": "function"
    },
    {
      "inputs": [],
      "name": "owner",
      "outputs": [
        {
          "internalType": "address",
          "name": "",
          "type": "address"
        }
      ],
      "stateMutability": "view",
      "type": "function"
    },
    {
      "inputs": [],
      "name": "renounceOwnership",
      "outputs": [],
      "stateMutability": "nonpayable",
      "type": "function"
    },
    {
      "inputs": [
        {
          "internalType": "address",
          "name": "newOwner",
          "type": "address"
        }
      ],
      "name": "transferOwnership",
      "outputs": [],
      "stateMutability": "nonpayable",
      "type": "function"
    },
    {
      "inputs": [
        {
          "internalType": "uint256",
          "name": "amount",
          "type": "uint256"
        }
      ],
      "name": "withdrawNewTokens",
      "outputs": [],
      "stateMutability": "nonpayable",
      "type": "function"
    },
    {
      "inputs": [
        {
          "internalType": "uint256",
          "name": "amount",
          "type": "uint256"
        }
      ],
      "name": "withdrawOldTokens",
      "outputs": [],
      "stateMutability": "nonpayable",
      "type": "function"
    }
  ],
  "bytecode": "0x60806040523480156200001157600080fd5b506040516200129f3803806200129f83398181016040528101906200003791906200028b565b33600073ffffffffffffffffffffffffffffffffffffffff168173ffffffffffffffffffffffffffffffffffffffff1603620000ad5760006040517f1e4fbdf7000000000000000000000000000000000000000000000000000000008152600401620000a49190620002e3565b60405180910390fd5b620000be816200014960201b60201c565b5081600160006101000a81548173ffffffffffffffffffffffffffffffffffffffff021916908373ffffffffffffffffffffffffffffffffffffffff16021790555080600260006101000a81548173ffffffffffffffffffffffffffffffffffffffff021916908373ffffffffffffffffffffffffffffffffffffffff160217905550505062000300565b60008060009054906101000a900473ffffffffffffffffffffffffffffffffffffffff169050816000806101000a81548173ffffffffffffffffffffffffffffffffffffffff021916908373ffffffffffffffffffffffffffffffffffffffff1602179055508173ffffffffffffffffffffffffffffffffffffffff168173ffffffffffffffffffffffffffffffffffffffff167f8be0079c531659141344cd1fd0a4f28419497f9722a3daafe3b4186f6b6457e060405160405180910390a35050565b600080fd5b600073ffffffffffffffffffffffffffffffffffffffff82169050919050565b60006200023f8262000212565b9050919050565b6000620002538262000232565b9050919050565b620002658162000246565b81146200027157600080fd5b50565b60008151905062000285816200025a565b92915050565b60008060408385031215620002a557620002a46200020d565b5b6000620002b58582860162000274565b9250506020620002c88582860162000274565b9150509250929050565b620002dd8162000232565b82525050565b6000602082019050620002fa6000830184620002d2565b92915050565b610f8f80620003106000396000f3fe608060405234801561001057600080fd5b50600436106100935760003560e01c80638da5cb5b116100665780638da5cb5b146100f6578063b31c710a14610114578063c42bd05a14610132578063e33f249914610150578063f2fde38b1461016c57610093565b80632766925514610098578063715018a6146100b457806380ea5961146100be57806381620863146100da575b600080fd5b6100b260048036038101906100ad9190610b6a565b610188565b005b6100bc6102c5565b005b6100d860048036038101906100d39190610bf7565b6102d9565b005b6100f460048036038101906100ef9190610c72565b610415565b005b6100fe61046d565b60405161010b9190610cae565b60405180910390f35b61011c610496565b6040516101299190610d28565b60405180910390f35b61013a6104bc565b6040516101479190610d28565b60405180910390f35b61016a60048036038101906101659190610c72565b6104e2565b005b61018660048036038101906101819190610d43565b61053a565b005b600160009054906101000a900473ffffffffffffffffffffffffffffffffffffffff1673ffffffffffffffffffffffffffffffffffffffff1663d505accf873088888888886040518863ffffffff1660e01b81526004016101ef9796959493929190610d9d565b600060405180830381600087803b15801561020957600080fd5b505af115801561021d573d6000803e3d6000fd5b50505050610270863087600160009054906101000a900473ffffffffffffffffffffffffffffffffffffffff1673ffffffffffffffffffffffffffffffffffffffff166105c0909392919063ffffffff16565b6102bd8686600260009054906101000a900473ffffffffffffffffffffffffffffffffffffffff1673ffffffffffffffffffffffffffffffffffffffff166106429092919063ffffffff16565b505050505050565b6102cd6106c1565b6102d76000610748565b565b600160009054906101000a900473ffffffffffffffffffffffffffffffffffffffff1673ffffffffffffffffffffffffffffffffffffffff1663d505accf333088888888886040518863ffffffff1660e01b81526004016103409796959493929190610d9d565b600060405180830381600087803b15801561035a57600080fd5b505af115801561036e573d6000803e3d6000fd5b505050506103c1333087600160009054906101000a900473ffffffffffffffffffffffffffffffffffffffff1673ffffffffffffffffffffffffffffffffffffffff166105c0909392919063ffffffff16565b61040e3386600260009054906101000a900473ffffffffffffffffffffffffffffffffffffffff1673ffffffffffffffffffffffffffffffffffffffff166106429092919063ffffffff16565b5050505050565b61041d6106c1565b61046a3382600160009054906101000a900473ffffffffffffffffffffffffffffffffffffffff1673ffffffffffffffffffffffffffffffffffffffff166106429092919063ffffffff16565b50565b60008060009054906101000a900473ffffffffffffffffffffffffffffffffffffffff16905090565b600160009054906101000a900473ffffffffffffffffffffffffffffffffffffffff1681565b600260009054906101000a900473ffffffffffffffffffffffffffffffffffffffff1681565b6104ea6106c1565b6105373382600260009054906101000a900473ffffffffffffffffffffffffffffffffffffffff1673ffffffffffffffffffffffffffffffffffffffff166106429092919063ffffffff16565b50565b6105426106c1565b600073ffffffffffffffffffffffffffffffffffffffff168173ffffffffffffffffffffffffffffffffffffffff16036105b45760006040517f1e4fbdf70000000000000000000000000000000000000000000000000000000081526004016105ab9190610cae565b60405180910390fd5b6105bd81610748565b50565b61063c848573ffffffffffffffffffffffffffffffffffffffff166323b872dd8686866040516024016105f593929190610e0c565b604051602081830303815290604052915060e01b6020820180517bffffffffffffffffffffffffffffffffffffffffffffffffffffffff838183161783525050505061080c565b50505050565b6106bc838473ffffffffffffffffffffffffffffffffffffffff1663a9059cbb8585604051602401610675929190610e43565b604051602081830303815290604052915060e01b6020820180517bffffffffffffffffffffffffffffffffffffffffffffffffffffffff838183161783525050505061080c565b505050565b6106c96108a3565b73ffffffffffffffffffffffffffffffffffffffff166106e761046d565b73ffffffffffffffffffffffffffffffffffffffff16146107465761070a6108a3565b6040517f118cdaa700000000000000000000000000000000000000000000000000000000815260040161073d9190610cae565b60405180910390fd5b565b60008060009054906101000a900473ffffffffffffffffffffffffffffffffffffffff169050816000806101000a81548173ffffffffffffffffffffffffffffffffffffffff021916908373ffffffffffffffffffffffffffffffffffffffff1602179055508173ffffffffffffffffffffffffffffffffffffffff168173ffffffffffffffffffffffffffffffffffffffff167f8be0079c531659141344cd1fd0a4f28419497f9722a3daafe3b4186f6b6457e060405160405180910390a35050565b6000610837828473ffffffffffffffffffffffffffffffffffffffff166108ab90919063ffffffff16565b9050600081511415801561085c57508080602001905181019061085a9190610ea4565b155b1561089e57826040517f5274afe70000000000000000000000000000000000000000000000000000000081526004016108959190610cae565b60405180910390fd5b505050565b600033905090565b60606108b9838360006108c1565b905092915050565b60608147101561090857306040517fcd7860590000000000000000000000000000000000000000000000000000000081526004016108ff9190610cae565b60405180910390fd5b6000808573ffffffffffffffffffffffffffffffffffffffff1684866040516109319190610f42565b60006040518083038185875af1925050503d806000811461096e576040519150601f19603f3d011682016040523d82523d6000602084013e610973565b606091505b509150915061098386838361098e565b925050509392505050565b6060826109a35761099e82610a1d565b610a15565b600082511480156109cb575060008473ffffffffffffffffffffffffffffffffffffffff163b145b15610a0d57836040517f9996b315000000000000000000000000000000000000000000000000000000008152600401610a049190610cae565b60405180910390fd5b819050610a16565b5b9392505050565b600081511115610a305780518082602001fd5b6040517f1425ea4200000000000000000000000000000000000000000000000000000000815260040160405180910390fd5b600080fd5b600073ffffffffffffffffffffffffffffffffffffffff82169050919050565b6000610a9282610a67565b9050919050565b610aa281610a87565b8114610aad57600080fd5b50565b600081359050610abf81610a99565b92915050565b6000819050919050565b610ad881610ac5565b8114610ae357600080fd5b50565b600081359050610af581610acf565b92915050565b600060ff82169050919050565b610b1181610afb565b8114610b1c57600080fd5b50565b600081359050610b2e81610b08565b92915050565b6000819050919050565b610b4781610b34565b8114610b5257600080fd5b50565b600081359050610b6481610b3e565b92915050565b60008060008060008060c08789031215610b8757610b86610a62565b5b6000610b9589828a01610ab0565b9650506020610ba689828a01610ae6565b9550506040610bb789828a01610ae6565b9450506060610bc889828a01610b1f565b9350506080610bd989828a01610b55565b92505060a0610bea89828a01610b55565b9150509295509295509295565b600080600080600060a08688031215610c1357610c12610a62565b5b6000610c2188828901610ae6565b9550506020610c3288828901610ae6565b9450506040610c4388828901610b1f565b9350506060610c5488828901610b55565b9250506080610c6588828901610b55565b9150509295509295909350565b600060208284031215610c8857610c87610a62565b5b6000610c9684828501610ae6565b91505092915050565b610ca881610a87565b82525050565b6000602082019050610cc36000830184610c9f565b92915050565b6000819050919050565b6000610cee610ce9610ce484610a67565b610cc9565b610a67565b9050919050565b6000610d0082610cd3565b9050919050565b6000610d1282610cf5565b9050919050565b610d2281610d07565b82525050565b6000602082019050610d3d6000830184610d19565b92915050565b600060208284031215610d5957610d58610a62565b5b6000610d6784828501610ab0565b91505092915050565b610d7981610ac5565b82525050565b610d8881610afb565b82525050565b610d9781610b34565b82525050565b600060e082019050610db2600083018a610c9f565b610dbf6020830189610c9f565b610dcc6040830188610d70565b610dd96060830187610d70565b610de66080830186610d7f565b610df360a0830185610d8e565b610e0060c0830184610d8e565b98975050505050505050565b6000606082019050610e216000830186610c9f565b610e2e6020830185610c9f565b610e3b6040830184610d70565b949350505050565b6000604082019050610e586000830185610c9f565b610e656020830184610d70565b9392505050565b60008115159050919050565b610e8181610e6c565b8114610e8c57600080fd5b50565b600081519050610e9e81610e78565b92915050565b600060208284031215610eba57610eb9610a62565b5b6000610ec884828501610e8f565b91505092915050565b600081519050919050565b600081905092915050565b60005b83811015610f05578082015181840152602081019050610eea565b60008484015250505050565b6000610f1c82610ed1565b610f268185610edc565b9350610f36818560208601610ee7565b80840191505092915050565b6000610f4e8284610f11565b91508190509291505056fea2646970667358221220abee3fad9c9091dc34cb37fa148e07df8df7ed9ea0dfdc6e8e14f0ae19e970cf64736f6c63430008180033",
  "linkReferences": {},
  "deployedLinkReferences": {}
}