{
  "_format": "hh-sol-artifact-1",
  "contractName": "XDEFIVault",
  "sourceName": "contracts/vXdefiTestERC4626.sol",
  "abi": [
    {
      "inputs": [
        {
          "internalType": "address",
          "name": "underlying",
          "type": "address"
        }
      ],
      "stateMutability": "nonpayable",
      "type": "constructor"
    },
    {
      "anonymous": false,
      "inputs": [
        {
          "indexed": true,
          "internalType": "address",
          "name": "owner",
          "type": "address"
        },
        {
          "indexed": true,
          "internalType": "address",
          "name": "spender",
          "type": "address"
        },
        {
          "indexed": false,
          "internalType": "uint256",
          "name": "value",
          "type": "uint256"
        }
      ],
      "name": "Approval",
      "type": "event"
    },
    {
      "anonymous": false,
      "inputs": [
        {
          "indexed": true,
          "internalType": "address",
          "name": "sender",
          "type": "address"
        },
        {
          "indexed": true,
          "internalType": "address",
          "name": "owner",
          "type": "address"
        },
        {
          "indexed": false,
          "internalType": "uint256",
          "name": "assets",
          "type": "uint256"
        },
        {
          "indexed": false,
          "internalType": "uint256",
          "name": "shares",
          "type": "uint256"
        }
      ],
      "name": "Deposit",
      "type": "event"
    },
    {
      "anonymous": false,
      "inputs": [
        {
          "indexed": true,
          "internalType": "address",
          "name": "from",
          "type": "address"
        },
        {
          "indexed": true,
          "internalType": "address",
          "name": "to",
          "type": "address"
        },
        {
          "indexed": false,
          "internalType": "uint256",
          "name": "value",
          "type": "uint256"
        }
      ],
      "name": "Transfer",
      "type": "event"
    },
    {
      "anonymous": false,
      "inputs": [
        {
          "indexed": true,
          "internalType": "address",
          "name": "sender",
          "type": "address"
        },
        {
          "indexed": true,
          "internalType": "address",
          "name": "receiver",
          "type": "address"
        },
        {
          "indexed": true,
          "internalType": "address",
          "name": "owner",
          "type": "address"
        },
        {
          "indexed": false,
          "internalType": "uint256",
          "name": "assets",
          "type": "uint256"
        },
        {
          "indexed": false,
          "internalType": "uint256",
          "name": "shares",
          "type": "uint256"
        }
      ],
      "name": "Withdraw",
      "type": "event"
    },
    {
      "inputs": [],
      "name": "DOMAIN_SEPARATOR",
      "outputs": [
        {
          "internalType": "bytes32",
          "name": "",
          "type": "bytes32"
        }
      ],
      "stateMutability": "view",
      "type": "function"
    },
    {
      "inputs": [
        {
          "internalType": "address",
          "name": "owner",
          "type": "address"
        },
        {
          "internalType": "address",
          "name": "spender",
          "type": "address"
        }
      ],
      "name": "allowance",
      "outputs": [
        {
          "internalType": "uint256",
          "name": "",
          "type": "uint256"
        }
      ],
      "stateMutability": "view",
      "type": "function"
    },
    {
      "inputs": [
        {
          "internalType": "address",
          "name": "spender",
          "type": "address"
        },
        {
          "internalType": "uint256",
          "name": "amount",
          "type": "uint256"
        }
      ],
      "name": "approve",
      "outputs": [
        {
          "internalType": "bool",
          "name": "",
          "type": "bool"
        }
      ],
      "stateMutability": "nonpayable",
      "type": "function"
    },
    {
      "inputs": [],
      "name": "asset",
      "outputs": [
        {
          "internalType": "address",
          "name": "",
          "type": "address"
        }
      ],
      "stateMutability": "view",
      "type": "function"
    },
    {
      "inputs": [
        {
          "internalType": "address",
          "name": "account",
          "type": "address"
        }
      ],
      "name": "balanceOf",
      "outputs": [
        {
          "internalType": "uint256",
          "name": "",
          "type": "uint256"
        }
      ],
      "stateMutability": "view",
      "type": "function"
    },
    {
      "inputs": [
        {
          "internalType": "uint256",
          "name": "shares",
          "type": "uint256"
        }
      ],
      "name": "convertToAssets",
      "outputs": [
        {
          "internalType": "uint256",
          "name": "assets",
          "type": "uint256"
        }
      ],
      "stateMutability": "view",
      "type": "function"
    },
    {
      "inputs": [
        {
          "internalType": "uint256",
          "name": "assets",
          "type": "uint256"
        }
      ],
      "name": "convertToShares",
      "outputs": [
        {
          "internalType": "uint256",
          "name": "shares",
          "type": "uint256"
        }
      ],
      "stateMutability": "view",
      "type": "function"
    },
    {
      "inputs": [],
      "name": "decimals",
      "outputs": [
        {
          "internalType": "uint8",
          "name": "",
          "type": "uint8"
        }
      ],
      "stateMutability": "view",
      "type": "function"
    },
    {
      "inputs": [
        {
          "internalType": "address",
          "name": "spender",
          "type": "address"
        },
        {
          "internalType": "uint256",
          "name": "subtractedValue",
          "type": "uint256"
        }
      ],
      "name": "decreaseAllowance",
      "outputs": [
        {
          "internalType": "bool",
          "name": "",
          "type": "bool"
        }
      ],
      "stateMutability": "nonpayable",
      "type": "function"
    },
    {
      "inputs": [
        {
          "internalType": "uint256",
          "name": "assets",
          "type": "uint256"
        },
        {
          "internalType": "address",
          "name": "receiver",
          "type": "address"
        }
      ],
      "name": "deposit",
      "outputs": [
        {
          "internalType": "uint256",
          "name": "",
          "type": "uint256"
        }
      ],
      "stateMutability": "nonpayable",
      "type": "function"
    },
    {
      "inputs": [],
      "name": "eip712Domain",
      "outputs": [
        {
          "internalType": "bytes1",
          "name": "fields",
          "type": "bytes1"
        },
        {
          "internalType": "string",
          "name": "name",
          "type": "string"
        },
        {
          "internalType": "string",
          "name": "version",
          "type": "string"
        },
        {
          "internalType": "uint256",
          "name": "chainId",
          "type": "uint256"
        },
        {
          "internalType": "address",
          "name": "verifyingContract",
          "type": "address"
        },
        {
          "internalType": "bytes32",
          "name": "salt",
          "type": "bytes32"
        },
        {
          "internalType": "uint256[]",
          "name": "extensions",
          "type": "uint256[]"
        }
      ],
      "stateMutability": "view",
      "type": "function"
    },
    {
      "inputs": [
        {
          "internalType": "address",
          "name": "spender",
          "type": "address"
        },
        {
          "internalType": "uint256",
          "name": "addedValue",
          "type": "uint256"
        }
      ],
      "name": "increaseAllowance",
      "outputs": [
        {
          "internalType": "bool",
          "name": "",
          "type": "bool"
        }
      ],
      "stateMutability": "nonpayable",
      "type": "function"
    },
    {
      "inputs": [
        {
          "internalType": "address",
          "name": "",
          "type": "address"
        }
      ],
      "name": "maxDeposit",
      "outputs": [
        {
          "internalType": "uint256",
          "name": "",
          "type": "uint256"
        }
      ],
      "stateMutability": "view",
      "type": "function"
    },
    {
      "inputs": [
        {
          "internalType": "address",
          "name": "",
          "type": "address"
        }
      ],
      "name": "maxMint",
      "outputs": [
        {
          "internalType": "uint256",
          "name": "",
          "type": "uint256"
        }
      ],
      "stateMutability": "view",
      "type": "function"
    },
    {
      "inputs": [
        {
          "internalType": "address",
          "name": "owner",
          "type": "address"
        }
      ],
      "name": "maxRedeem",
      "outputs": [
        {
          "internalType": "uint256",
          "name": "",
          "type": "uint256"
        }
      ],
      "stateMutability": "view",
      "type": "function"
    },
    {
      "inputs": [
        {
          "internalType": "address",
          "name": "owner",
          "type": "address"
        }
      ],
      "name": "maxWithdraw",
      "outputs": [
        {
          "internalType": "uint256",
          "name": "",
          "type": "uint256"
        }
      ],
      "stateMutability": "view",
      "type": "function"
    },
    {
      "inputs": [
        {
          "internalType": "uint256",
          "name": "shares",
          "type": "uint256"
        },
        {
          "internalType": "address",
          "name": "receiver",
          "type": "address"
        }
      ],
      "name": "mint",
      "outputs": [
        {
          "internalType": "uint256",
          "name": "",
          "type": "uint256"
        }
      ],
      "stateMutability": "nonpayable",
      "type": "function"
    },
    {
      "inputs": [],
      "name": "name",
      "outputs": [
        {
          "internalType": "string",
          "name": "",
          "type": "string"
        }
      ],
      "stateMutability": "view",
      "type": "function"
    },
    {
      "inputs": [
        {
          "internalType": "address",
          "name": "owner",
          "type": "address"
        }
      ],
      "name": "nonces",
      "outputs": [
        {
          "internalType": "uint256",
          "name": "",
          "type": "uint256"
        }
      ],
      "stateMutability": "view",
      "type": "function"
    },
    {
      "inputs": [
        {
          "internalType": "address",
          "name": "owner",
          "type": "address"
        },
        {
          "internalType": "address",
          "name": "spender",
          "type": "address"
        },
        {
          "internalType": "uint256",
          "name": "value",
          "type": "uint256"
        },
        {
          "internalType": "uint256",
          "name": "deadline",
          "type": "uint256"
        },
        {
          "internalType": "uint8",
          "name": "v",
          "type": "uint8"
        },
        {
          "internalType": "bytes32",
          "name": "r",
          "type": "bytes32"
        },
        {
          "internalType": "bytes32",
          "name": "s",
          "type": "bytes32"
        }
      ],
      "name": "permit",
      "outputs": [],
      "stateMutability": "nonpayable",
      "type": "function"
    },
    {
      "inputs": [
        {
          "internalType": "uint256",
          "name": "assets",
          "type": "uint256"
        }
      ],
      "name": "previewDeposit",
      "outputs": [
        {
          "internalType": "uint256",
          "name": "",
          "type": "uint256"
        }
      ],
      "stateMutability": "view",
      "type": "function"
    },
    {
      "inputs": [
        {
          "internalType": "uint256",
          "name": "shares",
          "type": "uint256"
        }
      ],
      "name": "previewMint",
      "outputs": [
        {
          "internalType": "uint256",
          "name": "",
          "type": "uint256"
        }
      ],
      "stateMutability": "view",
      "type": "function"
    },
    {
      "inputs": [
        {
          "internalType": "uint256",
          "name": "shares",
          "type": "uint256"
        }
      ],
      "name": "previewRedeem",
      "outputs": [
        {
          "internalType": "uint256",
          "name": "",
          "type": "uint256"
        }
      ],
      "stateMutability": "view",
      "type": "function"
    },
    {
      "inputs": [
        {
          "internalType": "uint256",
          "name": "assets",
          "type": "uint256"
        }
      ],
      "name": "previewWithdraw",
      "outputs": [
        {
          "internalType": "uint256",
          "name": "",
          "type": "uint256"
        }
      ],
      "stateMutability": "view",
      "type": "function"
    },
    {
      "inputs": [
        {
          "internalType": "uint256",
          "name": "shares",
          "type": "uint256"
        },
        {
          "internalType": "address",
          "name": "receiver",
          "type": "address"
        },
        {
          "internalType": "address",
          "name": "owner",
          "type": "address"
        }
      ],
      "name": "redeem",
      "outputs": [
        {
          "internalType": "uint256",
          "name": "",
          "type": "uint256"
        }
      ],
      "stateMutability": "nonpayable",
      "type": "function"
    },
    {
      "inputs": [],
      "name": "symbol",
      "outputs": [
        {
          "internalType": "string",
          "name": "",
          "type": "string"
        }
      ],
      "stateMutability": "view",
      "type": "function"
    },
    {
      "inputs": [],
      "name": "totalAssets",
      "outputs": [
        {
          "internalType": "uint256",
          "name": "",
          "type": "uint256"
        }
      ],
      "stateMutability": "view",
      "type": "function"
    },
    {
      "inputs": [],
      "name": "totalSupply",
      "outputs": [
        {
          "internalType": "uint256",
          "name": "",
          "type": "uint256"
        }
      ],
      "stateMutability": "view",
      "type": "function"
    },
    {
      "inputs": [
        {
          "internalType": "address",
          "name": "to",
          "type": "address"
        },
        {
          "internalType": "uint256",
          "name": "amount",
          "type": "uint256"
        }
      ],
      "name": "transfer",
      "outputs": [
        {
          "internalType": "bool",
          "name": "",
          "type": "bool"
        }
      ],
      "stateMutability": "nonpayable",
      "type": "function"
    },
    {
      "inputs": [
        {
          "internalType": "address",
          "name": "from",
          "type": "address"
        },
        {
          "internalType": "address",
          "name": "to",
          "type": "address"
        },
        {
          "internalType": "uint256",
          "name": "amount",
          "type": "uint256"
        }
      ],
      "name": "transferFrom",
      "outputs": [
        {
          "internalType": "bool",
          "name": "",
          "type": "bool"
        }
      ],
      "stateMutability": "nonpayable",
      "type": "function"
    },
    {
      "inputs": [
        {
          "internalType": "uint256",
          "name": "assets",
          "type": "uint256"
        },
        {
          "internalType": "address",
          "name": "receiver",
          "type": "address"
        },
        {
          "internalType": "address",
          "name": "owner",
          "type": "address"
        }
      ],
      "name": "withdraw",
      "outputs": [
        {
          "internalType": "uint256",
          "name": "",
          "type": "uint256"
        }
      ],
      "stateMutability": "nonpayable",
      "type": "function"
    }
  ],
  "bytecode": "0x6101a06040523480156200001257600080fd5b50604051620046f9380380620046f98339818101604052810190620000389190620004fc565b6040518060400160405280600681526020017f7658444546490000000000000000000000000000000000000000000000000000815250806040518060400160405280600181526020017f3100000000000000000000000000000000000000000000000000000000000000815250836040518060400160405280600681526020017f76584445464900000000000000000000000000000000000000000000000000008152506040518060400160405280600681526020017f76584445464900000000000000000000000000000000000000000000000000008152508160039081620001239190620007a8565b508060049081620001359190620007a8565b5050506000806200014c836200031360201b60201c565b91509150816200016c57620001666200044d60201b60201c565b6200016e565b805b60ff1660a08160ff16815250508273ffffffffffffffffffffffffffffffffffffffff1660808173ffffffffffffffffffffffffffffffffffffffff168152505050505060008280519060200120905060008280519060200120905060007f8b73c3c69bb8fe3d512ecc4cf759cc79239f7b179b0ffacaa9a75d522b39400f90508261012081815250508161014081815250504660e081815250506200021c8184846200045660201b60201c565b60c081815250503073ffffffffffffffffffffffffffffffffffffffff166101008173ffffffffffffffffffffffffffffffffffffffff1681525050806101608181525050505050505050600073ffffffffffffffffffffffffffffffffffffffff168173ffffffffffffffffffffffffffffffffffffffff1603620002d9576040517f08c379a0000000000000000000000000000000000000000000000000000000008152600401620002d09062000916565b60405180910390fd5b4233604051602001620002ee929190620009ad565b6040516020818303038152906040528051906020012061018081815250505062000b6c565b6000806000808473ffffffffffffffffffffffffffffffffffffffff1663313ce56760e01b604051602401604051602081830303815290604052907bffffffffffffffffffffffffffffffffffffffffffffffffffffffff19166020820180517bffffffffffffffffffffffffffffffffffffffffffffffffffffffff8381831617835250505050604051620003aa919062000a56565b600060405180830381855afa9150503d8060008114620003e7576040519150601f19603f3d011682016040523d82523d6000602084013e620003ec565b606091505b50915091508180156200040157506020815110155b156200043e576000818060200190518101906200041f919062000aa0565b905060ff801681116200043c576001819450945050505062000448565b505b6000809350935050505b915091565b60006012905090565b600083838346306040516020016200047395949392919062000b0f565b6040516020818303038152906040528051906020012090509392505050565b600080fd5b600073ffffffffffffffffffffffffffffffffffffffff82169050919050565b6000620004c48262000497565b9050919050565b620004d681620004b7565b8114620004e257600080fd5b50565b600081519050620004f681620004cb565b92915050565b60006020828403121562000515576200051462000492565b5b60006200052584828501620004e5565b91505092915050565b600081519050919050565b7f4e487b7100000000000000000000000000000000000000000000000000000000600052604160045260246000fd5b7f4e487b7100000000000000000000000000000000000000000000000000000000600052602260045260246000fd5b60006002820490506001821680620005b057607f821691505b602082108103620005c657620005c562000568565b5b50919050565b60008190508160005260206000209050919050565b60006020601f8301049050919050565b600082821b905092915050565b600060088302620006307fffffffffffffffffffffffffffffffffffffffffffffffffffffffffffffffff82620005f1565b6200063c8683620005f1565b95508019841693508086168417925050509392505050565b6000819050919050565b6000819050919050565b600062000689620006836200067d8462000654565b6200065e565b62000654565b9050919050565b6000819050919050565b620006a58362000668565b620006bd620006b48262000690565b848454620005fe565b825550505050565b600090565b620006d4620006c5565b620006e18184846200069a565b505050565b5b818110156200070957620006fd600082620006ca565b600181019050620006e7565b5050565b601f82111562000758576200072281620005cc565b6200072d84620005e1565b810160208510156200073d578190505b620007556200074c85620005e1565b830182620006e6565b50505b505050565b600082821c905092915050565b60006200077d600019846008026200075d565b1980831691505092915050565b60006200079883836200076a565b9150826002028217905092915050565b620007b3826200052e565b67ffffffffffffffff811115620007cf57620007ce62000539565b5b620007db825462000597565b620007e88282856200070d565b600060209050601f8311600181146200082057600084156200080b578287015190505b6200081785826200078a565b86555062000887565b601f1984166200083086620005cc565b60005b828110156200085a5784890151825560018201915060208501945060208101905062000833565b868310156200087a578489015162000876601f8916826200076a565b8355505b6001600288020188555050505b505050505050565b600082825260208201905092915050565b7f556e6465726c79696e6720746f6b656e20616464726573732063616e6e6f742060008201527f6265203078300000000000000000000000000000000000000000000000000000602082015250565b6000620008fe6026836200088f565b91506200090b82620008a0565b604082019050919050565b600060208201905081810360008301526200093181620008ef565b9050919050565b6000819050919050565b62000957620009518262000654565b62000938565b82525050565b60008160601b9050919050565b600062000977826200095d565b9050919050565b60006200098b826200096a565b9050919050565b620009a7620009a182620004b7565b6200097e565b82525050565b6000620009bb828562000942565b602082019150620009cd828462000992565b6014820191508190509392505050565b600081519050919050565b600081905092915050565b60005b8381101562000a13578082015181840152602081019050620009f6565b60008484015250505050565b600062000a2c82620009dd565b62000a388185620009e8565b935062000a4a818560208601620009f3565b80840191505092915050565b600062000a64828462000a1f565b915081905092915050565b62000a7a8162000654565b811462000a8657600080fd5b50565b60008151905062000a9a8162000a6f565b92915050565b60006020828403121562000ab95762000ab862000492565b5b600062000ac98482850162000a89565b91505092915050565b6000819050919050565b62000ae78162000ad2565b82525050565b62000af88162000654565b82525050565b62000b0981620004b7565b82525050565b600060a08201905062000b26600083018862000adc565b62000b35602083018762000adc565b62000b44604083018662000adc565b62000b53606083018562000aed565b62000b62608083018462000afe565b9695505050505050565b60805160a05160c05160e0516101005161012051610140516101605161018051613b0762000bf26000396000610ac1015260006117180152600061175a015260006117390152600061166e015260006116c4015260006116ed01526000611646015260008181610720015281816108f5015281816117ac01526118a60152613b076000f3fe608060405234801561001057600080fd5b50600436106101e55760003560e01c80637ecebe001161010f578063ba087652116100a2578063d505accf11610071578063d505accf14610670578063d905777e1461068c578063dd62ed3e146106bc578063ef8b30f7146106ec576101e5565b8063ba087652146105b0578063c63d75b6146105e0578063c6e6f59214610610578063ce96cb7714610640576101e5565b8063a457c2d7116100de578063a457c2d7146104f0578063a9059cbb14610520578063b3d7f6b914610550578063b460af9414610580576101e5565b80637ecebe001461044e57806384b0196e1461047e57806394bf804d146104a257806395d89b41146104d2576101e5565b8063313ce56711610187578063402d267d11610156578063402d267d1461038e5780634cdad506146103be5780636e553f65146103ee57806370a082311461041e576101e5565b8063313ce567146103045780633644e5151461032257806338d52e0f14610340578063395093511461035e576101e5565b8063095ea7b3116101c3578063095ea7b3146102565780630a28a4771461028657806318160ddd146102b657806323b872dd146102d4576101e5565b806301e1d114146101ea57806306fdde031461020857806307a2d13a14610226575b600080fd5b6101f261071c565b6040516101ff919061250f565b60405180910390f35b6102106107bd565b60405161021d91906125ba565b60405180910390f35b610240600480360381019061023b919061260d565b61084f565b60405161024d919061250f565b60405180910390f35b610270600480360381019061026b9190612698565b610863565b60405161027d91906126f3565b60405180910390f35b6102a0600480360381019061029b919061260d565b610886565b6040516102ad919061250f565b60405180910390f35b6102be61089a565b6040516102cb919061250f565b60405180910390f35b6102ee60048036038101906102e9919061270e565b6108a4565b6040516102fb91906126f3565b60405180910390f35b61030c6108d3565b604051610319919061277d565b60405180910390f35b61032a6108e2565b60405161033791906127b1565b60405180910390f35b6103486108f1565b60405161035591906127db565b60405180910390f35b61037860048036038101906103739190612698565b610919565b60405161038591906126f3565b60405180910390f35b6103a860048036038101906103a391906127f6565b610950565b6040516103b5919061250f565b60405180910390f35b6103d860048036038101906103d3919061260d565b61098e565b6040516103e5919061250f565b60405180910390f35b61040860048036038101906104039190612823565b6109a2565b604051610415919061250f565b60405180910390f35b610438600480360381019061043391906127f6565b610a19565b604051610445919061250f565b60405180910390f35b610468600480360381019061046391906127f6565b610a61565b604051610475919061250f565b60405180910390f35b610486610ab1565b604051610499979695949392919061295c565b60405180910390f35b6104bc60048036038101906104b79190612823565b610bda565b6040516104c9919061250f565b60405180910390f35b6104da610c51565b6040516104e791906125ba565b60405180910390f35b61050a60048036038101906105059190612698565b610ce3565b60405161051791906126f3565b60405180910390f35b61053a60048036038101906105359190612698565b610d5a565b60405161054791906126f3565b60405180910390f35b61056a6004803603810190610565919061260d565b610d7d565b604051610577919061250f565b60405180910390f35b61059a600480360381019061059591906129e0565b610d91565b6040516105a7919061250f565b60405180910390f35b6105ca60048036038101906105c591906129e0565b610e0a565b6040516105d7919061250f565b60405180910390f35b6105fa60048036038101906105f591906127f6565b610e83565b604051610607919061250f565b60405180910390f35b61062a6004803603810190610625919061260d565b610ead565b604051610637919061250f565b60405180910390f35b61065a600480360381019061065591906127f6565b610ec1565b604051610667919061250f565b60405180910390f35b61068a60048036038101906106859190612a8b565b610edd565b005b6106a660048036038101906106a191906127f6565b61101f565b6040516106b3919061250f565b60405180910390f35b6106d660048036038101906106d19190612b2d565b611031565b6040516106e3919061250f565b60405180910390f35b6107066004803603810190610701919061260d565b6110b8565b604051610713919061250f565b60405180910390f35b60007f000000000000000000000000000000000000000000000000000000000000000073ffffffffffffffffffffffffffffffffffffffff166370a08231306040518263ffffffff1660e01b815260040161077791906127db565b602060405180830381865afa158015610794573d6000803e3d6000fd5b505050506040513d601f19601f820116820180604052508101906107b89190612b82565b905090565b6060600380546107cc90612bde565b80601f01602080910402602001604051908101604052809291908181526020018280546107f890612bde565b80156108455780601f1061081a57610100808354040283529160200191610845565b820191906000526020600020905b81548152906001019060200180831161082857829003601f168201915b5050505050905090565b600061085c8260006110cc565b9050919050565b60008061086e611118565b905061087b818585611120565b600191505092915050565b60006108938260016112e9565b9050919050565b6000600254905090565b6000806108af611118565b90506108bc858285611340565b6108c78585856113cc565b60019150509392505050565b60006108dd611642565b905090565b60006108ec61166a565b905090565b60007f0000000000000000000000000000000000000000000000000000000000000000905090565b600080610924611118565b90506109458185856109368589611031565b6109409190612c3e565b611120565b600191505092915050565b600061095a611784565b610965576000610987565b7fffffffffffffffffffffffffffffffffffffffffffffffffffffffffffffffff5b9050919050565b600061099b8260006110cc565b9050919050565b60006109ad82610950565b8311156109ef576040517f08c379a00000000000000000000000000000000000000000000000000000000081526004016109e690612cbe565b60405180910390fd5b60006109fa846110b8565b9050610a0f610a07611118565b8486846117a7565b8091505092915050565b60008060008373ffffffffffffffffffffffffffffffffffffffff1673ffffffffffffffffffffffffffffffffffffffff168152602001908152602001600020549050919050565b6000610aaa600560008473ffffffffffffffffffffffffffffffffffffffff1673ffffffffffffffffffffffffffffffffffffffff16815260200190815260200160002061184a565b9050919050565b60006060806000806000606046307f0000000000000000000000000000000000000000000000000000000000000000600067ffffffffffffffff811115610afb57610afa612cde565b5b604051908082528060200260200182016040528015610b295781602001602082028036833780820191505090505b507f0f00000000000000000000000000000000000000000000000000000000000000939291906040518060400160405280600681526020017f7658444546490000000000000000000000000000000000000000000000000000815250939291906040518060400160405280600181526020017f310000000000000000000000000000000000000000000000000000000000000081525093929190965096509650965096509650965090919293949596565b6000610be582610e83565b831115610c27576040517f08c379a0000000000000000000000000000000000000000000000000000000008152600401610c1e90612d59565b60405180910390fd5b6000610c3284610d7d565b9050610c47610c3f611118565b8483876117a7565b8091505092915050565b606060048054610c6090612bde565b80601f0160208091040260200160405190810160405280929190818152602001828054610c8c90612bde565b8015610cd95780601f10610cae57610100808354040283529160200191610cd9565b820191906000526020600020905b815481529060010190602001808311610cbc57829003601f168201915b5050505050905090565b600080610cee611118565b90506000610cfc8286611031565b905083811015610d41576040517f08c379a0000000000000000000000000000000000000000000000000000000008152600401610d3890612deb565b60405180910390fd5b610d4e8286868403611120565b60019250505092915050565b600080610d65611118565b9050610d728185856113cc565b600191505092915050565b6000610d8a8260016110cc565b9050919050565b6000610d9c82610ec1565b841115610dde576040517f08c379a0000000000000000000000000000000000000000000000000000000008152600401610dd590612e57565b60405180910390fd5b6000610de985610886565b9050610dff610df6611118565b85858885611858565b809150509392505050565b6000610e158261101f565b841115610e57576040517f08c379a0000000000000000000000000000000000000000000000000000000008152600401610e4e90612ec3565b60405180910390fd5b6000610e628561098e565b9050610e78610e6f611118565b85858489611858565b809150509392505050565b60007fffffffffffffffffffffffffffffffffffffffffffffffffffffffffffffffff9050919050565b6000610eba8260006112e9565b9050919050565b6000610ed6610ecf83610a19565b60006110cc565b9050919050565b83421115610f20576040517f08c379a0000000000000000000000000000000000000000000000000000000008152600401610f1790612f2f565b60405180910390fd5b60007f6e71edae12b1b97f4d1f60370fef10105fa2faae0126114a169c64845d6126c9888888610f4f8c611951565b89604051602001610f6596959493929190612f4f565b6040516020818303038152906040528051906020012090506000610f88826119af565b90506000610f98828787876119c9565b90508973ffffffffffffffffffffffffffffffffffffffff168173ffffffffffffffffffffffffffffffffffffffff1614611008576040517f08c379a0000000000000000000000000000000000000000000000000000000008152600401610fff90612ffc565b60405180910390fd5b6110138a8a8a611120565b50505050505050505050565b600061102a82610a19565b9050919050565b6000600160008473ffffffffffffffffffffffffffffffffffffffff1673ffffffffffffffffffffffffffffffffffffffff16815260200190815260200160002060008373ffffffffffffffffffffffffffffffffffffffff1673ffffffffffffffffffffffffffffffffffffffff16815260200190815260200160002054905092915050565b60006110c58260006112e9565b9050919050565b6000806110d761089a565b905060008114611104576110ff6110ec61071c565b8285876119f4909392919063ffffffff16565b61110f565b61110e8484611a6a565b5b91505092915050565b600033905090565b600073ffffffffffffffffffffffffffffffffffffffff168373ffffffffffffffffffffffffffffffffffffffff160361118f576040517f08c379a00000000000000000000000000000000000000000000000000000000081526004016111869061308e565b60405180910390fd5b600073ffffffffffffffffffffffffffffffffffffffff168273ffffffffffffffffffffffffffffffffffffffff16036111fe576040517f08c379a00000000000000000000000000000000000000000000000000000000081526004016111f590613120565b60405180910390fd5b80600160008573ffffffffffffffffffffffffffffffffffffffff1673ffffffffffffffffffffffffffffffffffffffff16815260200190815260200160002060008473ffffffffffffffffffffffffffffffffffffffff1673ffffffffffffffffffffffffffffffffffffffff168152602001908152602001600020819055508173ffffffffffffffffffffffffffffffffffffffff168373ffffffffffffffffffffffffffffffffffffffff167f8c5be1e5ebec7d5bd14f71427d1e84f3dd0314c0f7b2291e5b200ac8c7c3b925836040516112dc919061250f565b60405180910390a3505050565b6000806112f461089a565b905060008414806113055750600081145b61132c576113278161131561071c565b85876119f4909392919063ffffffff16565b611337565b6113368484611a75565b5b91505092915050565b600061134c8484611031565b90507fffffffffffffffffffffffffffffffffffffffffffffffffffffffffffffffff81146113c657818110156113b8576040517f08c379a00000000000000000000000000000000000000000000000000000000081526004016113af9061318c565b60405180910390fd5b6113c58484848403611120565b5b50505050565b600073ffffffffffffffffffffffffffffffffffffffff168373ffffffffffffffffffffffffffffffffffffffff160361143b576040517f08c379a00000000000000000000000000000000000000000000000000000000081526004016114329061321e565b60405180910390fd5b600073ffffffffffffffffffffffffffffffffffffffff168273ffffffffffffffffffffffffffffffffffffffff16036114aa576040517f08c379a00000000000000000000000000000000000000000000000000000000081526004016114a1906132b0565b60405180910390fd5b6114b5838383611a80565b60008060008573ffffffffffffffffffffffffffffffffffffffff1673ffffffffffffffffffffffffffffffffffffffff1681526020019081526020016000205490508181101561153b576040517f08c379a000000000000000000000000000000000000000000000000000000000815260040161153290613342565b60405180910390fd5b8181036000808673ffffffffffffffffffffffffffffffffffffffff1673ffffffffffffffffffffffffffffffffffffffff16815260200190815260200160002081905550816000808573ffffffffffffffffffffffffffffffffffffffff1673ffffffffffffffffffffffffffffffffffffffff168152602001908152602001600020600082825401925050819055508273ffffffffffffffffffffffffffffffffffffffff168473ffffffffffffffffffffffffffffffffffffffff167fddf252ad1be2c89b69c2b068fc378daa952ba7f163c4a11628f55a4df523b3ef84604051611629919061250f565b60405180910390a361163c848484611a85565b50505050565b60007f0000000000000000000000000000000000000000000000000000000000000000905090565b60007f000000000000000000000000000000000000000000000000000000000000000073ffffffffffffffffffffffffffffffffffffffff163073ffffffffffffffffffffffffffffffffffffffff161480156116e657507f000000000000000000000000000000000000000000000000000000000000000046145b15611713577f00000000000000000000000000000000000000000000000000000000000000009050611781565b61177e7f00000000000000000000000000000000000000000000000000000000000000007f00000000000000000000000000000000000000000000000000000000000000007f0000000000000000000000000000000000000000000000000000000000000000611a8a565b90505b90565b60008061178f61071c565b11806117a2575060006117a061089a565b145b905090565b6117d37f0000000000000000000000000000000000000000000000000000000000000000853085611ac4565b6117dd8382611b4d565b8273ffffffffffffffffffffffffffffffffffffffff168473ffffffffffffffffffffffffffffffffffffffff167fdcbc1c05240f31ff3ad067ef1ee35ce4997762752e3a095284754544f4c709d7848460405161183c929190613362565b60405180910390a350505050565b600081600001549050919050565b8273ffffffffffffffffffffffffffffffffffffffff168573ffffffffffffffffffffffffffffffffffffffff161461189757611896838683611340565b5b6118a18382611ca3565b6118cc7f00000000000000000000000000000000000000000000000000000000000000008584611e70565b8273ffffffffffffffffffffffffffffffffffffffff168473ffffffffffffffffffffffffffffffffffffffff168673ffffffffffffffffffffffffffffffffffffffff167ffbde797d201c681b91056529119e0b02407c7bb96a4a2c75c01fc9667232c8db8585604051611942929190613362565b60405180910390a45050505050565b600080600560008473ffffffffffffffffffffffffffffffffffffffff1673ffffffffffffffffffffffffffffffffffffffff168152602001908152602001600020905061199e8161184a565b91506119a981611ef6565b50919050565b60006119c26119bc61166a565b83611f0c565b9050919050565b60008060006119da87878787611f3f565b915091506119e781612021565b8192505050949350505050565b600080611a02868686612187565b905060016002811115611a1857611a1761338b565b5b836002811115611a2b57611a2a61338b565b5b148015611a49575060008480611a4457611a436133ba565b5b868809115b15611a5e57600181611a5b9190612c3e565b90505b80915050949350505050565b600082905092915050565b600082905092915050565b505050565b505050565b60008383834630604051602001611aa59594939291906133e9565b6040516020818303038152906040528051906020012090509392505050565b611b47846323b872dd60e01b858585604051602401611ae59392919061343c565b604051602081830303815290604052907bffffffffffffffffffffffffffffffffffffffffffffffffffffffff19166020820180517bffffffffffffffffffffffffffffffffffffffffffffffffffffffff8381831617835250505050612262565b50505050565b600073ffffffffffffffffffffffffffffffffffffffff168273ffffffffffffffffffffffffffffffffffffffff1603611bbc576040517f08c379a0000000000000000000000000000000000000000000000000000000008152600401611bb3906134bf565b60405180910390fd5b611bc860008383611a80565b8060026000828254611bda9190612c3e565b92505081905550806000808473ffffffffffffffffffffffffffffffffffffffff1673ffffffffffffffffffffffffffffffffffffffff168152602001908152602001600020600082825401925050819055508173ffffffffffffffffffffffffffffffffffffffff16600073ffffffffffffffffffffffffffffffffffffffff167fddf252ad1be2c89b69c2b068fc378daa952ba7f163c4a11628f55a4df523b3ef83604051611c8b919061250f565b60405180910390a3611c9f60008383611a85565b5050565b600073ffffffffffffffffffffffffffffffffffffffff168273ffffffffffffffffffffffffffffffffffffffff1603611d12576040517f08c379a0000000000000000000000000000000000000000000000000000000008152600401611d0990613551565b60405180910390fd5b611d1e82600083611a80565b60008060008473ffffffffffffffffffffffffffffffffffffffff1673ffffffffffffffffffffffffffffffffffffffff16815260200190815260200160002054905081811015611da4576040517f08c379a0000000000000000000000000000000000000000000000000000000008152600401611d9b906135e3565b60405180910390fd5b8181036000808573ffffffffffffffffffffffffffffffffffffffff1673ffffffffffffffffffffffffffffffffffffffff1681526020019081526020016000208190555081600260008282540392505081905550600073ffffffffffffffffffffffffffffffffffffffff168373ffffffffffffffffffffffffffffffffffffffff167fddf252ad1be2c89b69c2b068fc378daa952ba7f163c4a11628f55a4df523b3ef84604051611e57919061250f565b60405180910390a3611e6b83600084611a85565b505050565b611ef18363a9059cbb60e01b8484604051602401611e8f929190613603565b604051602081830303815290604052907bffffffffffffffffffffffffffffffffffffffffffffffffffffffff19166020820180517bffffffffffffffffffffffffffffffffffffffffffffffffffffffff8381831617835250505050612262565b505050565b6001816000016000828254019250508190555050565b60008282604051602001611f219291906136a4565b60405160208183030381529060405280519060200120905092915050565b6000807f7fffffffffffffffffffffffffffffff5d576e7357a4501ddfe92f46681b20a08360001c1115611f7a576000600391509150612018565b600060018787878760405160008152602001604052604051611f9f94939291906136db565b6020604051602081039080840390855afa158015611fc1573d6000803e3d6000fd5b505050602060405103519050600073ffffffffffffffffffffffffffffffffffffffff168173ffffffffffffffffffffffffffffffffffffffff160361200f57600060019250925050612018565b80600092509250505b94509492505050565b600060048111156120355761203461338b565b5b8160048111156120485761204761338b565b5b031561218457600160048111156120625761206161338b565b5b8160048111156120755761207461338b565b5b036120b5576040517f08c379a00000000000000000000000000000000000000000000000000000000081526004016120ac9061376c565b60405180910390fd5b600260048111156120c9576120c861338b565b5b8160048111156120dc576120db61338b565b5b0361211c576040517f08c379a0000000000000000000000000000000000000000000000000000000008152600401612113906137d8565b60405180910390fd5b600360048111156121305761212f61338b565b5b8160048111156121435761214261338b565b5b03612183576040517f08c379a000000000000000000000000000000000000000000000000000000000815260040161217a9061386a565b60405180910390fd5b5b50565b60008060008019858709858702925082811083820303915050600081036121c2578382816121b8576121b76133ba565b5b049250505061225b565b8084116121ce57600080fd5b60008486880990508281118203915080830392506000600186190186169050808604955080840493506001818260000304019050808302841793506000600287600302189050808702600203810290508087026002038102905080870260020381029050808702600203810290508087026002038102905080870260020381029050808502955050505050505b9392505050565b60006122c4826040518060400160405280602081526020017f5361666545524332303a206c6f772d6c6576656c2063616c6c206661696c65648152508573ffffffffffffffffffffffffffffffffffffffff166123299092919063ffffffff16565b905060008151111561232457808060200190518101906122e491906138b6565b612323576040517f08c379a000000000000000000000000000000000000000000000000000000000815260040161231a90613955565b60405180910390fd5b5b505050565b60606123388484600085612341565b90509392505050565b606082471015612386576040517f08c379a000000000000000000000000000000000000000000000000000000000815260040161237d906139e7565b60405180910390fd5b6000808673ffffffffffffffffffffffffffffffffffffffff1685876040516123af9190613a4e565b60006040518083038185875af1925050503d80600081146123ec576040519150601f19603f3d011682016040523d82523d6000602084013e6123f1565b606091505b50915091506124028783838761240e565b92505050949350505050565b606083156124705760008351036124685761242885612483565b612467576040517f08c379a000000000000000000000000000000000000000000000000000000000815260040161245e90613ab1565b60405180910390fd5b5b82905061247b565b61247a83836124a6565b5b949350505050565b6000808273ffffffffffffffffffffffffffffffffffffffff163b119050919050565b6000825111156124b95781518083602001fd5b806040517f08c379a00000000000000000000000000000000000000000000000000000000081526004016124ed91906125ba565b60405180910390fd5b6000819050919050565b612509816124f6565b82525050565b60006020820190506125246000830184612500565b92915050565b600081519050919050565b600082825260208201905092915050565b60005b83811015612564578082015181840152602081019050612549565b60008484015250505050565b6000601f19601f8301169050919050565b600061258c8261252a565b6125968185612535565b93506125a6818560208601612546565b6125af81612570565b840191505092915050565b600060208201905081810360008301526125d48184612581565b905092915050565b600080fd5b6125ea816124f6565b81146125f557600080fd5b50565b600081359050612607816125e1565b92915050565b600060208284031215612623576126226125dc565b5b6000612631848285016125f8565b91505092915050565b600073ffffffffffffffffffffffffffffffffffffffff82169050919050565b60006126658261263a565b9050919050565b6126758161265a565b811461268057600080fd5b50565b6000813590506126928161266c565b92915050565b600080604083850312156126af576126ae6125dc565b5b60006126bd85828601612683565b92505060206126ce858286016125f8565b9150509250929050565b60008115159050919050565b6126ed816126d8565b82525050565b600060208201905061270860008301846126e4565b92915050565b600080600060608486031215612727576127266125dc565b5b600061273586828701612683565b935050602061274686828701612683565b9250506040612757868287016125f8565b9150509250925092565b600060ff82169050919050565b61277781612761565b82525050565b6000602082019050612792600083018461276e565b92915050565b6000819050919050565b6127ab81612798565b82525050565b60006020820190506127c660008301846127a2565b92915050565b6127d58161265a565b82525050565b60006020820190506127f060008301846127cc565b92915050565b60006020828403121561280c5761280b6125dc565b5b600061281a84828501612683565b91505092915050565b6000806040838503121561283a576128396125dc565b5b6000612848858286016125f8565b925050602061285985828601612683565b9150509250929050565b60007fff0000000000000000000000000000000000000000000000000000000000000082169050919050565b61289881612863565b82525050565b600081519050919050565b600082825260208201905092915050565b6000819050602082019050919050565b6128d3816124f6565b82525050565b60006128e583836128ca565b60208301905092915050565b6000602082019050919050565b60006129098261289e565b61291381856128a9565b935061291e836128ba565b8060005b8381101561294f57815161293688826128d9565b9750612941836128f1565b925050600181019050612922565b5085935050505092915050565b600060e082019050612971600083018a61288f565b81810360208301526129838189612581565b905081810360408301526129978188612581565b90506129a66060830187612500565b6129b360808301866127cc565b6129c060a08301856127a2565b81810360c08301526129d281846128fe565b905098975050505050505050565b6000806000606084860312156129f9576129f86125dc565b5b6000612a07868287016125f8565b9350506020612a1886828701612683565b9250506040612a2986828701612683565b9150509250925092565b612a3c81612761565b8114612a4757600080fd5b50565b600081359050612a5981612a33565b92915050565b612a6881612798565b8114612a7357600080fd5b50565b600081359050612a8581612a5f565b92915050565b600080600080600080600060e0888a031215612aaa57612aa96125dc565b5b6000612ab88a828b01612683565b9750506020612ac98a828b01612683565b9650506040612ada8a828b016125f8565b9550506060612aeb8a828b016125f8565b9450506080612afc8a828b01612a4a565b93505060a0612b0d8a828b01612a76565b92505060c0612b1e8a828b01612a76565b91505092959891949750929550565b60008060408385031215612b4457612b436125dc565b5b6000612b5285828601612683565b9250506020612b6385828601612683565b9150509250929050565b600081519050612b7c816125e1565b92915050565b600060208284031215612b9857612b976125dc565b5b6000612ba684828501612b6d565b91505092915050565b7f4e487b7100000000000000000000000000000000000000000000000000000000600052602260045260246000fd5b60006002820490506001821680612bf657607f821691505b602082108103612c0957612c08612baf565b5b50919050565b7f4e487b7100000000000000000000000000000000000000000000000000000000600052601160045260246000fd5b6000612c49826124f6565b9150612c54836124f6565b9250828201905080821115612c6c57612c6b612c0f565b5b92915050565b7f455243343632363a206465706f736974206d6f7265207468616e206d61780000600082015250565b6000612ca8601e83612535565b9150612cb382612c72565b602082019050919050565b60006020820190508181036000830152612cd781612c9b565b9050919050565b7f4e487b7100000000000000000000000000000000000000000000000000000000600052604160045260246000fd5b7f455243343632363a206d696e74206d6f7265207468616e206d61780000000000600082015250565b6000612d43601b83612535565b9150612d4e82612d0d565b602082019050919050565b60006020820190508181036000830152612d7281612d36565b9050919050565b7f45524332303a2064656372656173656420616c6c6f77616e63652062656c6f7760008201527f207a65726f000000000000000000000000000000000000000000000000000000602082015250565b6000612dd5602583612535565b9150612de082612d79565b604082019050919050565b60006020820190508181036000830152612e0481612dc8565b9050919050565b7f455243343632363a207769746864726177206d6f7265207468616e206d617800600082015250565b6000612e41601f83612535565b9150612e4c82612e0b565b602082019050919050565b60006020820190508181036000830152612e7081612e34565b9050919050565b7f455243343632363a2072656465656d206d6f7265207468616e206d6178000000600082015250565b6000612ead601d83612535565b9150612eb882612e77565b602082019050919050565b60006020820190508181036000830152612edc81612ea0565b9050919050565b7f45524332305065726d69743a206578706972656420646561646c696e65000000600082015250565b6000612f19601d83612535565b9150612f2482612ee3565b602082019050919050565b60006020820190508181036000830152612f4881612f0c565b9050919050565b600060c082019050612f6460008301896127a2565b612f7160208301886127cc565b612f7e60408301876127cc565b612f8b6060830186612500565b612f986080830185612500565b612fa560a0830184612500565b979650505050505050565b7f45524332305065726d69743a20696e76616c6964207369676e61747572650000600082015250565b6000612fe6601e83612535565b9150612ff182612fb0565b602082019050919050565b6000602082019050818103600083015261301581612fd9565b9050919050565b7f45524332303a20617070726f76652066726f6d20746865207a65726f2061646460008201527f7265737300000000000000000000000000000000000000000000000000000000602082015250565b6000613078602483612535565b91506130838261301c565b604082019050919050565b600060208201905081810360008301526130a78161306b565b9050919050565b7f45524332303a20617070726f766520746f20746865207a65726f20616464726560008201527f7373000000000000000000000000000000000000000000000000000000000000602082015250565b600061310a602283612535565b9150613115826130ae565b604082019050919050565b60006020820190508181036000830152613139816130fd565b9050919050565b7f45524332303a20696e73756666696369656e7420616c6c6f77616e6365000000600082015250565b6000613176601d83612535565b915061318182613140565b602082019050919050565b600060208201905081810360008301526131a581613169565b9050919050565b7f45524332303a207472616e736665722066726f6d20746865207a65726f20616460008201527f6472657373000000000000000000000000000000000000000000000000000000602082015250565b6000613208602583612535565b9150613213826131ac565b604082019050919050565b60006020820190508181036000830152613237816131fb565b9050919050565b7f45524332303a207472616e7366657220746f20746865207a65726f206164647260008201527f6573730000000000000000000000000000000000000000000000000000000000602082015250565b600061329a602383612535565b91506132a58261323e565b604082019050919050565b600060208201905081810360008301526132c98161328d565b9050919050565b7f45524332303a207472616e7366657220616d6f756e742065786365656473206260008201527f616c616e63650000000000000000000000000000000000000000000000000000602082015250565b600061332c602683612535565b9150613337826132d0565b604082019050919050565b6000602082019050818103600083015261335b8161331f565b9050919050565b60006040820190506133776000830185612500565b6133846020830184612500565b9392505050565b7f4e487b7100000000000000000000000000000000000000000000000000000000600052602160045260246000fd5b7f4e487b7100000000000000000000000000000000000000000000000000000000600052601260045260246000fd5b600060a0820190506133fe60008301886127a2565b61340b60208301876127a2565b61341860408301866127a2565b6134256060830185612500565b61343260808301846127cc565b9695505050505050565b600060608201905061345160008301866127cc565b61345e60208301856127cc565b61346b6040830184612500565b949350505050565b7f45524332303a206d696e7420746f20746865207a65726f206164647265737300600082015250565b60006134a9601f83612535565b91506134b482613473565b602082019050919050565b600060208201905081810360008301526134d88161349c565b9050919050565b7f45524332303a206275726e2066726f6d20746865207a65726f2061646472657360008201527f7300000000000000000000000000000000000000000000000000000000000000602082015250565b600061353b602183612535565b9150613546826134df565b604082019050919050565b6000602082019050818103600083015261356a8161352e565b9050919050565b7f45524332303a206275726e20616d6f756e7420657863656564732062616c616e60008201527f6365000000000000000000000000000000000000000000000000000000000000602082015250565b60006135cd602283612535565b91506135d882613571565b604082019050919050565b600060208201905081810360008301526135fc816135c0565b9050919050565b600060408201905061361860008301856127cc565b6136256020830184612500565b9392505050565b600081905092915050565b7f1901000000000000000000000000000000000000000000000000000000000000600082015250565b600061366d60028361362c565b915061367882613637565b600282019050919050565b6000819050919050565b61369e61369982612798565b613683565b82525050565b60006136af82613660565b91506136bb828561368d565b6020820191506136cb828461368d565b6020820191508190509392505050565b60006080820190506136f060008301876127a2565b6136fd602083018661276e565b61370a60408301856127a2565b61371760608301846127a2565b95945050505050565b7f45434453413a20696e76616c6964207369676e61747572650000000000000000600082015250565b6000613756601883612535565b915061376182613720565b602082019050919050565b6000602082019050818103600083015261378581613749565b9050919050565b7f45434453413a20696e76616c6964207369676e6174757265206c656e67746800600082015250565b60006137c2601f83612535565b91506137cd8261378c565b602082019050919050565b600060208201905081810360008301526137f1816137b5565b9050919050565b7f45434453413a20696e76616c6964207369676e6174757265202773272076616c60008201527f7565000000000000000000000000000000000000000000000000000000000000602082015250565b6000613854602283612535565b915061385f826137f8565b604082019050919050565b6000602082019050818103600083015261388381613847565b9050919050565b613893816126d8565b811461389e57600080fd5b50565b6000815190506138b08161388a565b92915050565b6000602082840312156138cc576138cb6125dc565b5b60006138da848285016138a1565b91505092915050565b7f5361666545524332303a204552433230206f7065726174696f6e20646964206e60008201527f6f74207375636365656400000000000000000000000000000000000000000000602082015250565b600061393f602a83612535565b915061394a826138e3565b604082019050919050565b6000602082019050818103600083015261396e81613932565b9050919050565b7f416464726573733a20696e73756666696369656e742062616c616e636520666f60008201527f722063616c6c0000000000000000000000000000000000000000000000000000602082015250565b60006139d1602683612535565b91506139dc82613975565b604082019050919050565b60006020820190508181036000830152613a00816139c4565b9050919050565b600081519050919050565b600081905092915050565b6000613a2882613a07565b613a328185613a12565b9350613a42818560208601612546565b80840191505092915050565b6000613a5a8284613a1d565b915081905092915050565b7f416464726573733a2063616c6c20746f206e6f6e2d636f6e7472616374000000600082015250565b6000613a9b601d83612535565b9150613aa682613a65565b602082019050919050565b60006020820190508181036000830152613aca81613a8e565b905091905056fea2646970667358221220b1be7d4088389d87b1f4a86fd00ba58889fa2a2a34ee527cd950dc844b5988ec64736f6c63430008180033",
  "linkReferences": {},
  "deployedLinkReferences": {}
}