{
  "_format": "hh-sol-artifact-1",
  "contractName": "XdefiToCtrlMigration",
  "sourceName": "contracts/XdefiToCtrlMigration.sol",
  "abi": [
    {
      "inputs": [
        {
          "internalType": "contract IERC20",
          "name": "_oldToken",
          "type": "address"
        },
        {
          "internalType": "contract IERC20",
          "name": "_newToken",
          "type": "address"
        },
        {
          "internalType": "contract IERC4626",
          "name": "_poolToken",
          "type": "address"
        }
      ],
      "stateMutability": "nonpayable",
      "type": "constructor"
    },
    {
      "inputs": [
        {
          "internalType": "address",
          "name": "target",
          "type": "address"
        }
      ],
      "name": "AddressEmptyCode",
      "type": "error"
    },
    {
      "inputs": [
        {
          "internalType": "address",
          "name": "account",
          "type": "address"
        }
      ],
      "name": "AddressInsufficientBalance",
      "type": "error"
    },
    {
      "inputs": [],
      "name": "FailedInnerCall",
      "type": "error"
    },
    {
      "inputs": [
        {
          "internalType": "address",
          "name": "owner",
          "type": "address"
        }
      ],
      "name": "OwnableInvalidOwner",
      "type": "error"
    },
    {
      "inputs": [
        {
          "internalType": "address",
          "name": "account",
          "type": "address"
        }
      ],
      "name": "OwnableUnauthorizedAccount",
      "type": "error"
    },
    {
      "inputs": [
        {
          "internalType": "address",
          "name": "token",
          "type": "address"
        }
      ],
      "name": "SafeERC20FailedOperation",
      "type": "error"
    },
    {
      "anonymous": false,
      "inputs": [
        {
          "indexed": true,
          "internalType": "address",
          "name": "user",
          "type": "address"
        },
        {
          "indexed": false,
          "internalType": "uint256",
          "name": "amount",
          "type": "uint256"
        }
      ],
      "name": "Migrated",
      "type": "event"
    },
    {
      "anonymous": false,
      "inputs": [
        {
          "indexed": true,
          "internalType": "address",
          "name": "previousOwner",
          "type": "address"
        },
        {
          "indexed": true,
          "internalType": "address",
          "name": "newOwner",
          "type": "address"
        }
      ],
      "name": "OwnershipTransferred",
      "type": "event"
    },
    {
      "inputs": [
        {
          "internalType": "uint256",
          "name": "amount",
          "type": "uint256"
        },
        {
          "internalType": "uint256",
          "name": "deadline",
          "type": "uint256"
        },
        {
          "internalType": "uint8",
          "name": "v",
          "type": "uint8"
        },
        {
          "internalType": "bytes32",
          "name": "r",
          "type": "bytes32"
        },
        {
          "internalType": "bytes32",
          "name": "s",
          "type": "bytes32"
        }
      ],
      "name": "migrate",
      "outputs": [],
      "stateMutability": "nonpayable",
      "type": "function"
    },
    {
      "inputs": [
        {
          "internalType": "uint256",
          "name": "shares",
          "type": "uint256"
        },
        {
          "internalType": "uint256",
          "name": "deadline",
          "type": "uint256"
        },
        {
          "internalType": "uint8",
          "name": "v",
          "type": "uint8"
        },
        {
          "internalType": "bytes32",
          "name": "r",
          "type": "bytes32"
        },
        {
          "internalType": "bytes32",
          "name": "s",
          "type": "bytes32"
        }
      ],
      "name": "migrateFromVXDEFI",
      "outputs": [],
      "stateMutability": "nonpayable",
      "type": "function"
    },
    {
      "inputs": [
        {
          "internalType": "address",
          "name": "user",
          "type": "address"
        },
        {
          "internalType": "uint256",
          "name": "shares",
          "type": "uint256"
        },
        {
          "internalType": "uint256",
          "name": "deadline",
          "type": "uint256"
        },
        {
          "internalType": "uint8",
          "name": "v",
          "type": "uint8"
        },
        {
          "internalType": "bytes32",
          "name": "r",
          "type": "bytes32"
        },
        {
          "internalType": "bytes32",
          "name": "s",
          "type": "bytes32"
        }
      ],
      "name": "migrateGaslessFromVXDEFI",
      "outputs": [],
      "stateMutability": "nonpayable",
      "type": "function"
    },
    {
      "inputs": [
        {
          "internalType": "address",
          "name": "user",
          "type": "address"
        },
        {
          "internalType": "uint256",
          "name": "amount",
          "type": "uint256"
        },
        {
          "internalType": "uint256",
          "name": "deadline",
          "type": "uint256"
        },
        {
          "internalType": "uint8",
          "name": "v",
          "type": "uint8"
        },
        {
          "internalType": "bytes32",
          "name": "r",
          "type": "bytes32"
        },
        {
          "internalType": "bytes32",
          "name": "s",
          "type": "bytes32"
        }
      ],
      "name": "migrateWithGaslessApproval",
      "outputs": [],
      "stateMutability": "nonpayable",
      "type": "function"
    },
    {
      "inputs": [],
      "name": "newToken",
      "outputs": [
        {
          "internalType": "contract IERC20",
          "name": "",
          "type": "address"
        }
      ],
      "stateMutability": "view",
      "type": "function"
    },
    {
      "inputs": [],
      "name": "oldToken",
      "outputs": [
        {
          "internalType": "contract IERC20",
          "name": "",
          "type": "address"
        }
      ],
      "stateMutability": "view",
      "type": "function"
    },
    {
      "inputs": [],
      "name": "owner",
      "outputs": [
        {
          "internalType": "address",
          "name": "",
          "type": "address"
        }
      ],
      "stateMutability": "view",
      "type": "function"
    },
    {
      "inputs": [],
      "name": "poolToken",
      "outputs": [
        {
          "internalType": "contract IERC4626",
          "name": "",
          "type": "address"
        }
      ],
      "stateMutability": "view",
      "type": "function"
    },
    {
      "inputs": [],
      "name": "renounceOwnership",
      "outputs": [],
      "stateMutability": "nonpayable",
      "type": "function"
    },
    {
      "inputs": [
        {
          "internalType": "address",
          "name": "newOwner",
          "type": "address"
        }
      ],
      "name": "transferOwnership",
      "outputs": [],
      "stateMutability": "nonpayable",
      "type": "function"
    },
    {
      "inputs": [
        {
          "internalType": "uint256",
          "name": "amount",
          "type": "uint256"
        }
      ],
      "name": "withdrawNewTokens",
      "outputs": [],
      "stateMutability": "nonpayable",
      "type": "function"
    },
    {
      "inputs": [
        {
          "internalType": "uint256",
          "name": "amount",
          "type": "uint256"
        }
      ],
      "name": "withdrawOldTokens",
      "outputs": [],
      "stateMutability": "nonpayable",
      "type": "function"
    },
    {
      "inputs": [
        {
          "internalType": "uint256",
          "name": "amount",
          "type": "uint256"
        }
      ],
      "name": "withdrawPoolTokens",
      "outputs": [],
      "stateMutability": "nonpayable",
      "type": "function"
    }
  ],
  "bytecode": "0x60806040523480156200001157600080fd5b5060405162001e1538038062001e15833981810160405281019062000037919062000468565b33600073ffffffffffffffffffffffffffffffffffffffff168173ffffffffffffffffffffffffffffffffffffffff1603620000ad5760006040517f1e4fbdf7000000000000000000000000000000000000000000000000000000008152600401620000a49190620004d5565b60405180910390fd5b620000be81620002e160201b60201c565b50600073ffffffffffffffffffffffffffffffffffffffff168373ffffffffffffffffffffffffffffffffffffffff160362000131576040517f08c379a0000000000000000000000000000000000000000000000000000000008152600401620001289062000553565b60405180910390fd5b600073ffffffffffffffffffffffffffffffffffffffff168273ffffffffffffffffffffffffffffffffffffffff1603620001a3576040517f08c379a00000000000000000000000000000000000000000000000000000000081526004016200019a90620005c5565b60405180910390fd5b600073ffffffffffffffffffffffffffffffffffffffff168173ffffffffffffffffffffffffffffffffffffffff160362000215576040517f08c379a00000000000000000000000000000000000000000000000000000000081526004016200020c906200065d565b60405180910390fd5b82600160006101000a81548173ffffffffffffffffffffffffffffffffffffffff021916908373ffffffffffffffffffffffffffffffffffffffff16021790555081600260006101000a81548173ffffffffffffffffffffffffffffffffffffffff021916908373ffffffffffffffffffffffffffffffffffffffff16021790555080600360006101000a81548173ffffffffffffffffffffffffffffffffffffffff021916908373ffffffffffffffffffffffffffffffffffffffff1602179055505050506200067f565b60008060009054906101000a900473ffffffffffffffffffffffffffffffffffffffff169050816000806101000a81548173ffffffffffffffffffffffffffffffffffffffff021916908373ffffffffffffffffffffffffffffffffffffffff1602179055508173ffffffffffffffffffffffffffffffffffffffff168173ffffffffffffffffffffffffffffffffffffffff167f8be0079c531659141344cd1fd0a4f28419497f9722a3daafe3b4186f6b6457e060405160405180910390a35050565b600080fd5b600073ffffffffffffffffffffffffffffffffffffffff82169050919050565b6000620003d782620003aa565b9050919050565b6000620003eb82620003ca565b9050919050565b620003fd81620003de565b81146200040957600080fd5b50565b6000815190506200041d81620003f2565b92915050565b60006200043082620003ca565b9050919050565b620004428162000423565b81146200044e57600080fd5b50565b600081519050620004628162000437565b92915050565b600080600060608486031215620004845762000483620003a5565b5b600062000494868287016200040c565b9350506020620004a7868287016200040c565b9250506040620004ba8682870162000451565b9150509250925092565b620004cf81620003ca565b82525050565b6000602082019050620004ec6000830184620004c4565b92915050565b600082825260208201905092915050565b7f4f6c6420746f6b656e20616464726573732063616e6e6f74206265207a65726f600082015250565b60006200053b602083620004f2565b9150620005488262000503565b602082019050919050565b600060208201905081810360008301526200056e816200052c565b9050919050565b7f4e657720746f6b656e20616464726573732063616e6e6f74206265207a65726f600082015250565b6000620005ad602083620004f2565b9150620005ba8262000575565b602082019050919050565b60006020820190508181036000830152620005e0816200059e565b9050919050565b7f506f6f6c20746f6b656e20616464726573732063616e6e6f74206265207a657260008201527f6f00000000000000000000000000000000000000000000000000000000000000602082015250565b600062000645602183620004f2565b91506200065282620005e7565b604082019050919050565b60006020820190508181036000830152620006788162000636565b9050919050565b611786806200068f6000396000f3fe608060405234801561001057600080fd5b50600436106100cf5760003560e01c8063b31c710a1161008c578063cbdf382c11610066578063cbdf382c146101c4578063d7dfc7c2146101e2578063e33f2499146101fe578063f2fde38b1461021a576100cf565b8063b31c710a1461016c578063c42bd05a1461018a578063ca212509146101a8576100cf565b806327669255146100d4578063715018a6146100f057806380ea5961146100fa57806381620863146101165780638da5cb5b146101325780639dd1ed1b14610150575b600080fd5b6100ee60048036038101906100e99190611291565b610236565b005b6100f86103c1565b005b610114600480360381019061010f919061131e565b6103d5565b005b610130600480360381019061012b9190611399565b61055f565b005b61013a6105b7565b60405161014791906113d5565b60405180910390f35b61016a60048036038101906101659190611399565b6105e0565b005b61017461068c565b604051610181919061144f565b60405180910390f35b6101926106b2565b60405161019f919061144f565b60405180910390f35b6101c260048036038101906101bd919061131e565b6106d8565b005b6101cc61095d565b6040516101d9919061148b565b60405180910390f35b6101fc60048036038101906101f79190611291565b610983565b005b61021860048036038101906102139190611399565b610c09565b005b610234600480360381019061022f91906114a6565b610c61565b005b600160009054906101000a900473ffffffffffffffffffffffffffffffffffffffff1673ffffffffffffffffffffffffffffffffffffffff1663d505accf873088888888886040518863ffffffff1660e01b815260040161029d9796959493929190611500565b600060405180830381600087803b1580156102b757600080fd5b505af11580156102cb573d6000803e3d6000fd5b5050505061031e863087600160009054906101000a900473ffffffffffffffffffffffffffffffffffffffff1673ffffffffffffffffffffffffffffffffffffffff16610ce7909392919063ffffffff16565b61036b8686600260009054906101000a900473ffffffffffffffffffffffffffffffffffffffff1673ffffffffffffffffffffffffffffffffffffffff16610d699092919063ffffffff16565b8573ffffffffffffffffffffffffffffffffffffffff167f8b80bd19aea7b735bc6d75db8d6adbe18b28c30d62b3555245eb67b2340caedc866040516103b1919061156f565b60405180910390a2505050505050565b6103c9610de8565b6103d36000610e6f565b565b600160009054906101000a900473ffffffffffffffffffffffffffffffffffffffff1673ffffffffffffffffffffffffffffffffffffffff1663d505accf333088888888886040518863ffffffff1660e01b815260040161043c9796959493929190611500565b600060405180830381600087803b15801561045657600080fd5b505af115801561046a573d6000803e3d6000fd5b505050506104bd333087600160009054906101000a900473ffffffffffffffffffffffffffffffffffffffff1673ffffffffffffffffffffffffffffffffffffffff16610ce7909392919063ffffffff16565b61050a3386600260009054906101000a900473ffffffffffffffffffffffffffffffffffffffff1673ffffffffffffffffffffffffffffffffffffffff16610d699092919063ffffffff16565b3373ffffffffffffffffffffffffffffffffffffffff167f8b80bd19aea7b735bc6d75db8d6adbe18b28c30d62b3555245eb67b2340caedc86604051610550919061156f565b60405180910390a25050505050565b610567610de8565b6105b43382600160009054906101000a900473ffffffffffffffffffffffffffffffffffffffff1673ffffffffffffffffffffffffffffffffffffffff16610d699092919063ffffffff16565b50565b60008060009054906101000a900473ffffffffffffffffffffffffffffffffffffffff16905090565b6105e8610de8565b600360009054906101000a900473ffffffffffffffffffffffffffffffffffffffff1673ffffffffffffffffffffffffffffffffffffffff1663a9059cbb33836040518363ffffffff1660e01b815260040161064592919061158a565b6020604051808303816000875af1158015610664573d6000803e3d6000fd5b505050506040513d601f19601f8201168201806040525081019061068891906115eb565b5050565b600160009054906101000a900473ffffffffffffffffffffffffffffffffffffffff1681565b600260009054906101000a900473ffffffffffffffffffffffffffffffffffffffff1681565b600360009054906101000a900473ffffffffffffffffffffffffffffffffffffffff1673ffffffffffffffffffffffffffffffffffffffff1663d505accf333088888888886040518863ffffffff1660e01b815260040161073f9796959493929190611500565b600060405180830381600087803b15801561075957600080fd5b505af115801561076d573d6000803e3d6000fd5b50505050600360009054906101000a900473ffffffffffffffffffffffffffffffffffffffff1673ffffffffffffffffffffffffffffffffffffffff166323b872dd3330886040518463ffffffff1660e01b81526004016107d093929190611618565b6020604051808303816000875af11580156107ef573d6000803e3d6000fd5b505050506040513d601f19601f8201168201806040525081019061081391906115eb565b506000600360009054906101000a900473ffffffffffffffffffffffffffffffffffffffff1673ffffffffffffffffffffffffffffffffffffffff1663ba0876528730306040518463ffffffff1660e01b81526004016108759392919061164f565b6020604051808303816000875af1158015610894573d6000803e3d6000fd5b505050506040513d601f19601f820116820180604052508101906108b8919061169b565b90506109073382600260009054906101000a900473ffffffffffffffffffffffffffffffffffffffff1673ffffffffffffffffffffffffffffffffffffffff16610d699092919063ffffffff16565b3373ffffffffffffffffffffffffffffffffffffffff167f8b80bd19aea7b735bc6d75db8d6adbe18b28c30d62b3555245eb67b2340caedc8260405161094d919061156f565b60405180910390a2505050505050565b600360009054906101000a900473ffffffffffffffffffffffffffffffffffffffff1681565b600360009054906101000a900473ffffffffffffffffffffffffffffffffffffffff1673ffffffffffffffffffffffffffffffffffffffff1663d505accf873088888888886040518863ffffffff1660e01b81526004016109ea9796959493929190611500565b600060405180830381600087803b158015610a0457600080fd5b505af1158015610a18573d6000803e3d6000fd5b50505050600360009054906101000a900473ffffffffffffffffffffffffffffffffffffffff1673ffffffffffffffffffffffffffffffffffffffff166323b872dd8730886040518463ffffffff1660e01b8152600401610a7b93929190611618565b6020604051808303816000875af1158015610a9a573d6000803e3d6000fd5b505050506040513d601f19601f82011682018060405250810190610abe91906115eb565b506000600360009054906101000a900473ffffffffffffffffffffffffffffffffffffffff1673ffffffffffffffffffffffffffffffffffffffff1663ba0876528730306040518463ffffffff1660e01b8152600401610b209392919061164f565b6020604051808303816000875af1158015610b3f573d6000803e3d6000fd5b505050506040513d601f19601f82011682018060405250810190610b63919061169b565b9050610bb28782600260009054906101000a900473ffffffffffffffffffffffffffffffffffffffff1673ffffffffffffffffffffffffffffffffffffffff16610d699092919063ffffffff16565b8673ffffffffffffffffffffffffffffffffffffffff167f8b80bd19aea7b735bc6d75db8d6adbe18b28c30d62b3555245eb67b2340caedc82604051610bf8919061156f565b60405180910390a250505050505050565b610c11610de8565b610c5e3382600260009054906101000a900473ffffffffffffffffffffffffffffffffffffffff1673ffffffffffffffffffffffffffffffffffffffff16610d699092919063ffffffff16565b50565b610c69610de8565b600073ffffffffffffffffffffffffffffffffffffffff168173ffffffffffffffffffffffffffffffffffffffff1603610cdb5760006040517f1e4fbdf7000000000000000000000000000000000000000000000000000000008152600401610cd291906113d5565b60405180910390fd5b610ce481610e6f565b50565b610d63848573ffffffffffffffffffffffffffffffffffffffff166323b872dd868686604051602401610d1c93929190611618565b604051602081830303815290604052915060e01b6020820180517bffffffffffffffffffffffffffffffffffffffffffffffffffffffff8381831617835250505050610f33565b50505050565b610de3838473ffffffffffffffffffffffffffffffffffffffff1663a9059cbb8585604051602401610d9c92919061158a565b604051602081830303815290604052915060e01b6020820180517bffffffffffffffffffffffffffffffffffffffffffffffffffffffff8381831617835250505050610f33565b505050565b610df0610fca565b73ffffffffffffffffffffffffffffffffffffffff16610e0e6105b7565b73ffffffffffffffffffffffffffffffffffffffff1614610e6d57610e31610fca565b6040517f118cdaa7000000000000000000000000000000000000000000000000000000008152600401610e6491906113d5565b60405180910390fd5b565b60008060009054906101000a900473ffffffffffffffffffffffffffffffffffffffff169050816000806101000a81548173ffffffffffffffffffffffffffffffffffffffff021916908373ffffffffffffffffffffffffffffffffffffffff1602179055508173ffffffffffffffffffffffffffffffffffffffff168173ffffffffffffffffffffffffffffffffffffffff167f8be0079c531659141344cd1fd0a4f28419497f9722a3daafe3b4186f6b6457e060405160405180910390a35050565b6000610f5e828473ffffffffffffffffffffffffffffffffffffffff16610fd290919063ffffffff16565b90506000815114158015610f83575080806020019051810190610f8191906115eb565b155b15610fc557826040517f5274afe7000000000000000000000000000000000000000000000000000000008152600401610fbc91906113d5565b60405180910390fd5b505050565b600033905090565b6060610fe083836000610fe8565b905092915050565b60608147101561102f57306040517fcd78605900000000000000000000000000000000000000000000000000000000815260040161102691906113d5565b60405180910390fd5b6000808573ffffffffffffffffffffffffffffffffffffffff1684866040516110589190611739565b60006040518083038185875af1925050503d8060008114611095576040519150601f19603f3d011682016040523d82523d6000602084013e61109a565b606091505b50915091506110aa8683836110b5565b925050509392505050565b6060826110ca576110c582611144565b61113c565b600082511480156110f2575060008473ffffffffffffffffffffffffffffffffffffffff163b145b1561113457836040517f9996b31500000000000000000000000000000000000000000000000000000000815260040161112b91906113d5565b60405180910390fd5b81905061113d565b5b9392505050565b6000815111156111575780518082602001fd5b6040517f1425ea4200000000000000000000000000000000000000000000000000000000815260040160405180910390fd5b600080fd5b600073ffffffffffffffffffffffffffffffffffffffff82169050919050565b60006111b98261118e565b9050919050565b6111c9816111ae565b81146111d457600080fd5b50565b6000813590506111e6816111c0565b92915050565b6000819050919050565b6111ff816111ec565b811461120a57600080fd5b50565b60008135905061121c816111f6565b92915050565b600060ff82169050919050565b61123881611222565b811461124357600080fd5b50565b6000813590506112558161122f565b92915050565b6000819050919050565b61126e8161125b565b811461127957600080fd5b50565b60008135905061128b81611265565b92915050565b60008060008060008060c087890312156112ae576112ad611189565b5b60006112bc89828a016111d7565b96505060206112cd89828a0161120d565b95505060406112de89828a0161120d565b94505060606112ef89828a01611246565b935050608061130089828a0161127c565b92505060a061131189828a0161127c565b9150509295509295509295565b600080600080600060a0868803121561133a57611339611189565b5b60006113488882890161120d565b95505060206113598882890161120d565b945050604061136a88828901611246565b935050606061137b8882890161127c565b925050608061138c8882890161127c565b9150509295509295909350565b6000602082840312156113af576113ae611189565b5b60006113bd8482850161120d565b91505092915050565b6113cf816111ae565b82525050565b60006020820190506113ea60008301846113c6565b92915050565b6000819050919050565b600061141561141061140b8461118e565b6113f0565b61118e565b9050919050565b6000611427826113fa565b9050919050565b60006114398261141c565b9050919050565b6114498161142e565b82525050565b60006020820190506114646000830184611440565b92915050565b60006114758261141c565b9050919050565b6114858161146a565b82525050565b60006020820190506114a0600083018461147c565b92915050565b6000602082840312156114bc576114bb611189565b5b60006114ca848285016111d7565b91505092915050565b6114dc816111ec565b82525050565b6114eb81611222565b82525050565b6114fa8161125b565b82525050565b600060e082019050611515600083018a6113c6565b61152260208301896113c6565b61152f60408301886114d3565b61153c60608301876114d3565b61154960808301866114e2565b61155660a08301856114f1565b61156360c08301846114f1565b98975050505050505050565b600060208201905061158460008301846114d3565b92915050565b600060408201905061159f60008301856113c6565b6115ac60208301846114d3565b9392505050565b60008115159050919050565b6115c8816115b3565b81146115d357600080fd5b50565b6000815190506115e5816115bf565b92915050565b60006020828403121561160157611600611189565b5b600061160f848285016115d6565b91505092915050565b600060608201905061162d60008301866113c6565b61163a60208301856113c6565b61164760408301846114d3565b949350505050565b600060608201905061166460008301866114d3565b61167160208301856113c6565b61167e60408301846113c6565b949350505050565b600081519050611695816111f6565b92915050565b6000602082840312156116b1576116b0611189565b5b60006116bf84828501611686565b91505092915050565b600081519050919050565b600081905092915050565b60005b838110156116fc5780820151818401526020810190506116e1565b60008484015250505050565b6000611713826116c8565b61171d81856116d3565b935061172d8185602086016116de565b80840191505092915050565b60006117458284611708565b91508190509291505056fea264697066735822122046d773e2f2326bd0992105d680472cd19e6d0a1e77d5be2b1cb67762900576ba64736f6c63430008180033",
  "linkReferences": {},
  "deployedLinkReferences": {}
}